:020000040800F2
:1000000000100010BD010008B1010008B101000896
:10001000B1010008B1010008B1010008B1010008F8
:10002000B1010008B1010008B1010008B1010008E8
:10003000B1010008B1010008B1010008B1010008D8
:10004000B1010008B1010008B1010008B1010008C8
:10005000B1010008B1010008B1010008B1010008B8
:10006000B1010008B1010008B1010008B1010008A8
:10007000B1010008B1010008B1010008B101000898
:10008000B1010008B1010008B1010008B101000888
:10009000B1010008B1010008B1010008B101000878
:1000A000B1010008B1010008B1010008B101000868
:1000B000B1010008B1010008B1010008B101000858
:1000C000B1010008B1010008B1010008B101000848
:1000D000B1010008B1010008B1010008B101000838
:1000E000B1010008B1010008B1010008B101000828
:1000F000B1010008B1010008B1010008B101000818
:10010000B1010008B1010008B1010008B101000807
:10011000B1010008B1010008B1010008B1010008F7
:10012000B1010008B1010008B1010008B1010008E7
:10013000B1010008B1010008B1010008B1010008D7
:10014000B1010008B1010008B1010008B1010008C7
:10015000B1010008B1010008B1010008B1010008B7
:10016000B1010008B1010008B1010008B1010008A7
:10017000B1010008B1010008B1010008B101000897
:10018000B1010008B1010008B1010008B101000887
:10019000B1010008B1010008B1010008B101000877
:1001A000B1010008B1010008B1010008B101000867
:1001B000684620F007018D4601B4FEE700F03CF8E8
:1001C000064B074A9A60064B1B681C4684F3088856
:1001D000034B5B681C46A047FEE700BF00ED00E054
:1001E00000800008044A05480023195C9954013333
:1001F000B3F5007FF9D170470010001000400008EF
:10020000F8B5F22000F09CFB00F08CFB02210820E6
:10021000074D084F00F0DAFB0024A5F50076A01981
:10022000854204D9395900F025FC0434F7E7F8BDBC
:100230000042000800100010F8B5234CFFF7D2FF71
:100240002368002B3EDD22682049002000F042F8A0
:100250006368834236D1F22000F072FB00F062FB4B
:100260000221082000F0B2FB0221102000F0AEFBBA
:100270000221182000F0AAFB0221202000F0A6FB9A
:100280000221282000F0A2FB0221302000F09EFB7A
:100290000221382000F09AFB23680D4E0B4FA3F586
:1002A0007F5300253D3B042493FBF4F4AB00A542AF
:1002B00003EB060006D003F580430135F95800F042
:1002C000D9FBF3E7F8BD00BF0010001000000808DC
:1002D0000040000810B5084CC0430A44914208D0C1
:1002E00011F8013B4340DBB254F8233083EA10207D
:1002F000F4E7C04310BD00BF2403000810B5084C4C
:100300000A4491420AD011F8013B4340DBB204EBAE
:100310004303B3F8003483EA1020F2E710BD00BFB6
:100320002403000800000000963007772C610EEED1
:10033000BA51099919C46D078FF46A7035A563E93C
:10034000A395649E3288DB0EA4B8DC791EE9D5E063
:1003500088D9D2972B4CB609BD7CB17E072DB8E762
:10036000911DBF906410B71DF220B06A4871B9F3B7
:10037000DE41BE847DD4DA1AEBE4DD6D51B5D4F4F0
:10038000C785D38356986C13C0A86B647AF962FD55
:10039000ECC9658A4F5C0114D96C0663633D0FFAA2
:1003A000F50D088DC8206E3B5E10694CE44160D5A8
:1003B000727167A2D1E4033C47D4044BFD850DD292
:1003C0006BB50AA5FAA8B5356C98B242D6C9BBDBA5
:1003D00040F9BCACE36CD832755CDF45CF0DD6DCA0
:1003E000593DD1ABAC30D9263A00DE518051D7C847
:1003F0001661D0BFB5F4B42123C4B3569995BACFD2
:100400000FA5BDB89EB802280888055FB2D90CC6F2
:1004100024E90BB1877C6F2F114C6858AB1D61C16B
:100420003D2D66B69041DC760671DB01BC20D2988A
:100430002A10D5EF8985B1711FB5B606A5E4BF9F17
:1004400033D4B8E8A2C9077834F9000F8EA809960A
:1004500018980EE1BB0D6A7F2D3D6D08976C649175
:10046000015C63E6F4516B6B62616C1CD83065858E
:100470004E0062F2ED95066C7BA5011BC1F408826B
:1004800057C40FF5C6D9B06550E9B712EAB8BE8BAC
:100490007C88B9FCDF1DDD62492DDA15F37CD38C35
:1004A000654CD4FB5861B24DCE51B53A7400BCA333
:1004B000E230BBD441A5DF4AD795D83D6DC4D1A465
:1004C000FBF4D6D36AE96943FCD96E34468867AD3C
:1004D000D0B860DA732D0444E51D03335F4C0AAADB
:1004E000C97C0DDD3C710550AA41022710100BBEDE
:1004F00086200CC925B56857B3856F2009D466B925
:100500009FE461CE0EF9DE5E98C9D9292298D0B059
:10051000B4A8D7C7173DB359810DB42E3B5CBDB706
:10052000AD6CBAC02083B8EDB6B3BF9A0CE2B60387
:100530009AD2B1743947D5EAAF77D29D1526DB043C
:100540008316DC73120B63E3843B64943E6A6D0D87
:10055000A85A6A7A0BCF0EE49DFF099327AE000AD2
:10056000B19E077D44930FF0D2A3088768F2011E65
:10057000FEC206695D5762F7CB67658071366C19FC
:10058000E7066B6E761BD4FEE02BD3895A7ADA101D
:10059000CC4ADD676FDFB9F9F9EFBE8E43BEB717FE
:1005A000D58EB060E8A3D6D67E93D1A1C4C2D83888
:1005B00052F2DF4FF167BBD16757BCA6DD06B53FEE
:1005C0004B36B248DA2B0DD84C1B0AAFF64A03362D
:1005D000607A0441C3EF60DF55DF67A8EF8E6E31AC
:1005E00079BE69468CB361CB1A8366BCA0D26F25F5
:1005F00036E2685295770CCC03470BBBB916022242
:100600002F260555BE3BBAC5280BBDB2925AB42B56
:10061000046AB35CA7FFD7C231CFD0B58B9ED92C6B
:100620001DAEDE5BB0C2649B26F263EC9CA36A75D0
:100630000A936D02A906099C3F360EEB8567077287
:1006400013570005824ABF95147AB8E2AE2BB17BEE
:10065000381BB60C9B8ED2920DBED5E5B7EFDC7C75
:1006600021DFDB0BD4D2D38642E2D4F1F8B3DD68CC
:100670006E83DA1FCD16BE815B26B9F6E177B06FC7
:100680007747B718E65A0888706A0FFFCA3B0666B4
:100690005C0B0111FF9E658F69AE62F8D3FF6B6141
:1006A00045CF6C1678E20AA0EED20DD75483044EE3
:1006B000C2B30339612667A7F71660D04D47694971
:1006C000DB776E3E4A6AD1AEDC5AD6D9660BDF4084
:1006D000F03BD83753AEBCA9C59EBBDE7FCFB24737
:1006E000E9FFB5301CF2BDBD8AC2BACA3093B3531C
:1006F000A6A3B4240536D0BA9306D7CD2957DE5425
:10070000BF67D9232E7A66B3B84A61C4021B685DFD
:10071000942B6F2A37BE0BB4A18E0CC31BDF055A76
:100720008DEF022D0000C1C081C1400101C3C00393
:10073000800241C201C6C006800741C70005C1C58D
:1007400081C4400401CCC00C800D41CD000FC1CF4D
:1007500081CE400E000AC1CA81CB400B01C9C0093D
:10076000800841C801D8C018801941D9001BC1DBDD
:1007700081DA401A001EC1DE81DF401F01DDC01D8D
:10078000801C41DC0014C1D481D5401501D7C017AD
:10079000801641D601D2C012801341D30011C1D1BD
:1007A00081D0401001F0C030803141F10033C1F3FD
:1007B00081F240320036C1F681F7403701F5C0358D
:1007C000803441F4003CC1FC81FD403D01FFC03F4D
:1007D000803E41FE01FAC03A803B41FB0039C1F93D
:1007E00081F840380028C1E881E9402901EBC02B9D
:1007F000802A41EA01EEC02E802F41EF002DC1ED8D
:1008000081EC402C01E4C024802541E50027C1E7AC
:1008100081E640260022C1E281E3402301E1C021BC
:10082000802041E001A0C060806141A10063C1A3BC
:1008300081A240620066C1A681A7406701A5C0658C
:10084000806441A4006CC1AC81AD406D01AFC06F4C
:10085000806E41AE01AAC06A806B41AB0069C1A93C
:1008600081A840680078C1B881B9407901BBC07BDC
:10087000807A41BA01BEC07E807F41BF007DC1BD8C
:1008800081BC407C01B4C074807541B50077C1B7AC
:1008900081B640760072C1B281B3407301B1C071BC
:1008A000807041B00050C190819140510193C0537C
:1008B000805241920196C056805741970055C1958C
:1008C00081944054019CC05C805D419D005FC19F4C
:1008D000819E405E005AC19A819B405B0199C0593C
:1008E000805841980188C04880494189004BC18B9C
:1008F000818A404A004EC18E818F404F018DC04D8C
:10090000804C418C0044C184818540450187C047AB
:10091000804641860182C042804341830041C181BB
:1009200081804040044B1A69002ABFBF034A5A60C5
:1009300002F188325A607047003C0240230167454B
:1009400020F4F97323F0010382B023B918B1054BE9
:10095000D86002B0704701230193019B002BFCD1AA
:10096000F5E700BF003C02400E4BDA68D20310D41A
:10097000DA68D1060FD4DA68D2050ED4DA6812F03C
:10098000EF0F0CD1DB6813F0020F14BF0820092011
:1009900070470120704706207047022070470720EB
:1009A000704700BF003C024007B509238DF80730AF
:1009B000FFF7DAFF8DF807009DF80730012BF7D01D
:1009C0009DF8070003B05DF804FB000030F0180349
:1009D00073B5064604D1032916D9012301930FE00C
:1009E000202BF8D0402BF6D0802BF4D0A02BF2D0C7
:1009F000C02BF0D001230093009B002BFCD1EAE731
:100A0000019B002BFCD102E059B1012906D002293B
:100A100014BF4FF440754FF4007503E04FF4807538
:100A200000E00D46FFF7C0FF09281ED1104C2369D6
:100A300023F440732361216929432161236923F051
:100A4000F8032361236943F002031E4326612369EF
:100A500043F480332361FFF7A7FF236923F00203E8
:100A60002361236923F0F803236102B070BD00BF46
:100A7000003C0240184B00F178429A4273B505469B
:100A80000E4618D8FFF790FF092822D1134C23698E
:100A900023F440732361236943F4007323612369C2
:100AA00043F0010323612E60FFF77EFF236923F0EB
:100AB000010323610DE000F1604303F5084340F2B8
:100AC0000E229342DED901230193019B002BFCD11E
:100AD000D8E702B070BD00BFFEFF1F00003C02401F
:1040000000EFCDAB01EFCDAB02EFCDAB03EFCDAB0E
:1040100004EFCDAB05EFCDAB06EFCDAB07EFCDABEE
:1040200008EFCDAB09EFCDAB0AEFCDAB0BEFCDABCE
:104030000CEFCDAB0DEFCDAB0EEFCDAB0FEFCDABAE
:1040400010EFCDAB11EFCDAB12EFCDAB13EFCDAB8E
:1040500014EFCDAB15EFCDAB16EFCDAB17EFCDAB6E
:1040600018EFCDAB19EFCDAB1AEFCDAB1BEFCDAB4E
:104070001CEFCDAB1DEFCDAB1EEFCDAB00000000B4
:104080000000000000000000000000000000000030
:104090000000000000000000000000000000000020
:1040A0000000000000000000000000000000000010
:1040B0000000000000000000000000000000000000
:1040C00000000000000000000000000000000000F0
:1040D00000000000000000000000000000000000E0
:1040E00000000000000000000000000000000000D0
:1040F00000000000000000000000000000000000C0
:1041000000000000000000000000000000000000AF
:10411000000000000000000000000000000000009F
:10412000000000000000000000000000000000008F
:10413000000000000000000000000000000000007F
:10414000000000000000000000000000000000006F
:10415000000000000000000000000000000000005F
:10416000000000000000000000000000000000004F
:10417000000000000000000000000000000000003F
:10418000000000000000000000000000000000002F
:10419000000000000000000000000000000000001F
:1041A000000000000000000000000000000000000F
:1041B00000000000000000000000000000000000FF
:1041C00000000000000000000000000000000000EF
:1041D00000000000000000000000000000000000DF
:1041E00000000000000000000000000000000000CF
:1041F00000000000000000000000000000000000BF
:108000000010001041860008F58600080D89000860
:10801000F5860008F5860008F5860008B586000894
:10802000B5860008B5860008B586000841A300089B
:10803000F5860008B5860008E5A300088D870008CE
:10804000B5860008B5860008B5860008B586000824
:10805000B5860008B5860008B5860008B586000814
:10806000B5860008B5860008B5860008B586000804
:10807000B5860008B5860008B5860008B5860008F4
:10808000B5860008B5860008B5860008B5860008E4
:10809000B5860008B5860008B5860008B5860008D4
:1080A000B5860008B5860008B5860008B5860008C4
:1080B000B5860008B5860008B5860008B5860008B4
:1080C000B5860008B5860008B5860008B5860008A4
:1080D000B5860008B5860008B5860008B586000894
:1080E000B5860008B5860008B5860008B586000884
:1080F000B5860008B5860008B5860008B586000874
:10810000B5860008B5860008B5860008B586000863
:10811000B5860008B5860008B5860008B586000853
:10812000B5860008B5860008B5860008B586000843
:10813000B5860008B5860008B5860008B586000833
:10814000B5860008B5860008B5860008B586000823
:10815000B5860008B5860008B5860008B586000813
:10816000B5860008B5860008B5860008B586000803
:10817000B5860008B5860008B5860008B5860008F3
:10818000B5860008B5860008B5860008B5860008E3
:10819000B5860008B5860008B5860008B5860008D3
:1081A000B5860008B5860008B5860008B5860008C3
:1081B000F8B500BFF8BC08BC9E467047F8B500BFD4
:1081C000F8BC08BC9E4670472DE9F84F4FF440704C
:1081D0000CF0D4FE0023037003234370A14B1B68F3
:1081E0000446172B00F2B481DFE813F018001800E2
:1081F00034003400340034006800680096009600B3
:1082000096009600DA00DA00FF00FF00FF00FF0092
:108210003E013E016D016D016D016D0100F1140320
:108220000022112012250226012702F00301022953
:1082300006D0032906D0012914BF1F701E7002E06A
:10824000187000E01D700132B2F5407F03F10103A8
:10825000EBD17DE100F114030022922091258226CA
:1082600081274FF0120E4FF0110C4FF002084FF023
:10827000010902F007010139062905D8DFE801F0FC
:10828000070A0D101214160083F800900FE083F80F
:1082900000800CE083F800C009E083F800E006E00D
:1082A0001F7004E01E7002E01D7000E018700132C3
:1082B000B2F5407F03F10103DBD149E100F1140382
:1082C000002106201325122611274FF0030E4FF030
:1082D000020C4FF0010891FBF0F200FB1212013A80
:1082E000042A04D8DFE802F006090C0E100083F817
:1082F00000800AE083F800C007E083F800E004E0B3
:108300001F7002E01E7000E01D700131B1F5407F6A
:1083100003F10103DFD11BE100F1140300210C2064
:108320009325922691274FF0830E4FF0820C4FF049
:1083300081084FF013094FF0120A91FBF0F200FB95
:108340001212013A0A2A07D8DFE802F0080B0D0FD3
:108350001215181B1E202200012200E002221A70B2
:1083600017E00322FBE71122F9E783F800A010E0F1
:1083700083F800900DE083F800800AE083F800C0E5
:1083800007E083F800E004E01F7002E01E7000E0E8
:108390001D700131B1F5407F03F10103CDD1D7E06C
:1083A000002200F1140311461225112602274FF076
:1083B000010E02F007000138062805D8DFE800F0BA
:1083C000070D0D090B0D0D0083F800E006E01F708E
:1083D00004E01E7002E01D7000E019700132B2F579
:1083E000407F03F10103E4D1B2E0002100F1140366
:1083F0000A469225912682274FF0810E4FF0120CEB
:108400004FF011084FF002094FF0010A01F00F0080
:1084100001380E2809D8DFE800F00B1D1D0E111DD4
:108420001D14171D1D191B1D1D0083F800A012E04F
:1084300083F800900FE083F800800CE083F800C020
:1084400009E083F800E006E01F7004E01E7002E01F
:108450001D7000E01A700131B1F5407F03F1010396
:10846000D4D175E0082B0010002200F114038125FF
:108470001046832682274FF0010E4FF0030C4FF079
:10848000020802F007010139062905D8DFE801F0EA
:1084900007110A0D0F11130083F800800CE083F818
:1084A00000C009E083F800E006E01F7004E01E70E1
:1084B00002E0187000E01D700132B2F5407F03F158
:1084C0000103DED144E0002200F11403912511469E
:1084D000932692274FF0810E4FF0830C4FF08208C5
:1084E0004FF011094FF0130A02F00F0001380E2867
:1084F00009D8DFE800F00A240D0F112414171A24FC
:108500001D2022242600022000E00320187019E01C
:108510000120FBE71220F9E783F800A012E083F8BE
:1085200000900FE083F800800CE083F800C009E0C1
:1085300083F800E006E01F7004E01E7002E019708E
:1085400000E01D700132B2F5407F03F10103CBD191
:10855000214606480CF09FFC002804DA2046BDE8BE
:10856000F84F0CF065BFBDE8F88F00BF482700103A
:108570001F4B10B504461860172832D8DFE800F00A
:108580000C0C0C0C0C0C1111111111111B1B1B1BD1
:108590001B1B252525252525164B002153F82020BA
:1085A0001CE0062290FBF2F302FB1303114A0221A6
:1085B00052F8232012E0062290FBF2F302FB130391
:1085C0000C4A012152F8232008E0062290FBF2F326
:1085D00002FB1303074A52F82320042107200DF061
:1085E00031FD0134182394FBF3F003FB104010BD60
:1085F000082B00101CD3010808B505F0B1FF04F0EA
:10860000ADFD00F045FB03F035FE02F09DFF03F0E9
:10861000E7FB0BF021FF0EF01DFA05F0EBFCBDE8C7
:10862000084000F0F5B908B54FF4407007F0FEFFC0
:1086300007F074FF05F064FD02F03EF9FEE700006C
:10864000124A1349D36843F08073D360114A124B26
:108650008B4204D252F8040F43F8040BF8E70F4999
:10866000002303F108028818B2F5587F58501346CA
:108670000B4AF6D10023C2F80835194642F82310F8
:1086800001336C2BFAD1FFF7CEBF00BFF0ED00E055
:108690009C3C001000F9030800120010B08101207A
:1086A00000800120024B1868003018BF012070477D
:1086B0000C2B0010684620F007018D4631B50B4D9C
:1086C0002B6801332B6000F0AFF8094B53F82040C2
:1086D00024B1636898472468002CFAD12B68013BC9
:1086E0002B60BDE831408546704700BF0C2B001061
:1086F00000800120684620F007018D4601B5BDE8E5
:10870000014085467047000038B504460D4601F02B
:108710004DFE194A13685BB901F05AFE174B1B6CEA
:10872000002B22DB164800F07FFA4FF0FF3038BDF7
:1087300004F110006B280BDD01F04AFE0F4B1B6C9F
:10874000002B15DB0F4800F06FFA6FF0010038BD09
:10875000196811600C4A52F82010196042F8203054
:108760005D6001F035FE002038BD4FF0FF3038BDB0
:108770006FF0010038BD00BF0012001000100010A3
:1087800034D3010850D3010800800120684620F04E
:1087900007018D4631B50849084AD1E90045002353
:1087A00012196B41C1E90023C1E9022301F038FE2F
:1087B000BDE8314085467047102B001040420F0045
:1087C000F7B501F0D9FD144B144C9B680193019D42
:1087D000134B1A684FF47A73B2FBF3F1491B4B4306
:1087E0001049B2FBF1F1B3FBF1F1D4E90023D4E974
:1087F0000267521843F10003BB4208BFB24203D2E2
:10880000084E002792197B41C4E9022301F0DCFDE8
:10881000D4E9020103B0F0BD10E000E0102B00101D
:108820007C23001040420F00EFF30580704782B0B8
:1088300001230193019B002BFCD102B07047000083
:1088400007B5074B1B6C002B02DB064800F0ECF968
:1088500001230193019B002BFCD103B05DF804FBC5
:1088600000100010D7D3010880B586B002AF786041
:108870006B46FB60204B1B6C002B02DB1F4800F09B
:10888000D3F91D4B1B6C002B0FDB7B6819687B68D1
:1088900004331A687B68083318687B680C331B68DC
:1088A00000930346164800F0BFF9134B1B6C002BD6
:1088B00010DB7B68103319687B6814331A687B6897
:1088C000183318687B681C331B68009303460D48F7
:1088D00000F0AAF9084B1B6C002B03DBF9680A486F
:1088E00000F0A2F90123BB6000BFBB68002BFCD1E4
:1088F00000BF1037BD4680BD001000106CD30108CA
:108900007CD30108A4D30108CCD301081EF0040FC6
:108910000CBFEFF30880EFF309808169004A10472C
:108920006988000800BF38B50546FFF7BBFE04465E
:1089300008B901F03BFD284601F02AFE05460CB9B6
:1089400001F046FD284638BD38B50546FFF7AAFEBA
:10895000044608B901F02AFD284601F085FE1CB93D
:10896000BDE8384001F034BD38BD000010B501F05D
:108970001DFD094C63693BB101F02AFD012002F0A5
:10898000C3F801F013FDF5E7034B01225A61BDE87E
:10899000104001F01DBD00BF102B001008B501F004
:1089A00005FD034B00225A61BDE8084001F010BDEF
:1089B000102B001010B504468021054808F040FC3B
:1089C0000028F9D021460248BDE8104008F038BB25
:1089D000007C004010B50446FFF7C8FF2046FFF7B3
:1089E000E9FF0A2C02BF034B01221A74BDE81040B4
:1089F000FFF7D4BF102B001010B5044C23681BB137
:108A0000012002F081F8F9E710BD00BF0412001048
:108A1000014B00221A6070470412001010B5044682
:108A2000012002F084FB024B1860024B1C6010BD59
:108A3000282B0010B43200100A2810B5044602D1C9
:108A40000D20FFF7F9FF074A53681BB1591C51600D
:108A50001C7010BD044B1B681BB12046BDE81040C4
:108A6000184710BD282B0010B432001010B5441E5A
:108A700014F8010F10B1FFF7DFFFF9E710BD2DE982
:108A8000FF4702460D461078002800F0C9802528CF
:108A900001D0571C6BE05378302B03D1D71C93784F
:108AA000012607E02D2B0DBF9378971C0026D71CBD
:108AB00008BF02264FF000080A21A3F13002092A5C
:108AC00006D801FB0838A8F1300817F8013BF4E795
:108AD00003F0DF024C2A02BF3B7846F00406013760
:108AE000002B00F09D80602B86BFA3F12002D2B244
:108AF0001A464F2A12D006D8432A30D0442A3CD0F6
:108B0000422A38D032E0552A37D0582A2CD0532A5E
:108B10002CD1D5F800902C1D4B4601E008202DE00B
:108B2000C9EB030513F8012B002AF9D1B00709D4CA
:108B3000454505F1010604D22020FFF77DFF3546AB
:108B4000F6E735464846FFF791FFA84502D8254687
:108B50003A4698E72020FFF76FFF0135F5E72878C0
:108B60002C1DFFF769FFF2E7102007E01846FFF71A
:108B700063FF2C46EBE7022000E00A20442A296824
:108B800005F1040404D10029BCBF494246F008069F
:108B9000782B14BF4FF0070C4FF0270C0022B1FBCD
:108BA000F0FE00FB1E15EBB2092D84BF6344DBB25F
:108BB00030337146551C0DF80230BEF1000F04D061
:108BC000102D01D02A46EAE70F22310705D504AB64
:108BD0001D442D2305F8103C951C16F0010F14BF01
:108BE0004FF0300A4FF0200AB307A94609D4C14517
:108BF00009F1010604D25046FFF71EFFB146F6E721
:108C0000B146013D1DF80500FFF716FF002DF8D114
:108C1000C8459CD92020FFF70FFF09F10109F7E7AC
:108C200004B0BDE8F08700000FB413B50C4C00236E
:108C300064221946206802F0F3FA01280AD105A936
:108C400004980191FFF71BFF00231A46194620687C
:108C500002F0E3F902B0BDE8104004B0704700BF75
:108C6000282B00100EB417B505A9084C51F8043B89
:108C7000606018460191FFF702FF626800231370DD
:108C8000636003B0BDE8104003B07047282B0010AC
:108C900070470000084930B500227C2404FB021311
:108CA0005D6825B11D68A84201D1184630BD01326A
:108CB0001A2AF3D1002030BD3412001021B108B9B6
:108CC0004868704748697047084670472DE9F04F7B
:108CD0000F4687B017F814A9804650460D46144633
:108CE0009946FFF7D7FF064650B99B4B1B6C002BEC
:108CF00040F30381424651469848FFF795FFFCE058
:108D000001464046FFF7DAFFA0420EDD924B1B6C96
:108D1000002B04DD424651469148FFF785FF22466D
:108D20002946404601F05CF9E7E025F8144C01F0D3
:108D3000F5FD336A06EB88021844002345F80C0C55
:108D400045F8083C936A01339362736A002B40F044
:108D5000D480814C2369002B44D02B78B12B05D8CB
:108D6000B02B08D2552B03D0A22B00E0CC2B05D181
:108D70002269022A36DD2269012A33DD2269032AAB
:108D800003DD754A12699A422CD1236C012B13DD45
:108D900001F0C4FD35F8143C0193724B724953F84D
:108DA00028300093714B2A78B9F1000F18BF0B4699
:108DB00001466F48FFF738FF4FF0000935F8143CC3
:108DC0009945236C09DA012B04DD15F8091069486F
:108DD000FFF72AFF09F10109F0E7012B02DD6648E0
:108DE000FFF722FFB8F1000F51D0B468012C24D155
:108DF000F068C0B2FFF74EFF83466B1C5BF8789FAC
:108E0000039382460024B9F1000F43D0D9F8103003
:108E10000293DAF814200399013A09F1150014F0CD
:108E2000DDF838B9494658460CF008F848460CF0C9
:108E3000FFFA0124DDF80890E5E701224CBBB346B8
:108E400008F1FF3A02FA0AFA5BF8789F6FEA0A0A19
:108E5000B9F1000F1ED0D9F810300293726929467B
:108E600009F1140014F0BAF870B9D9F80C200AEA24
:108E70000202C9F80C203AB9494658460BF0DEFF09
:108E800048460CF0D5FA0124DDF80890E0E701240B
:108E900000E0144633698DF817304CB3B468D6F847
:108EA0007090012C1ABFB4FA84F464090224B9F159
:108EB000000F06D00DF117033A4631464046C84729
:108EC0000446A30701D5B36823B1E00704D5B3680E
:108ED000012B01D1F3682B70A10709D038460CF0A3
:108EE000E5FB3B4635F8142C2946002002F088FFAC
:108EF0009DF81790B9F1000F05D138460CF098FA9B
:108F000007B0BDE8F08FB8F1000FF6D1A207F4D496
:108F100001F004FD336A45F8089C184445F80C0C30
:108F2000394606F178000BF085FF38460CF0BEFBA1
:108F30004C460126E30709D538460CF0B7FB3B4603
:108F400035F8142C2946304602F05AFF01366410D9
:108F5000F6B2EFD1D1E700BF001000100AD401082B
:108F600032D401084823001001D4010805D40108B7
:108F70005DD4010881D401088ADE0308014601237B
:108F800031F8142B002002F0E5BA70472DE9F74FB5
:108F900001F0D6F8DFF8A89000274FF07C0B0BFB10
:108FA00007F509EB050673682BB901371A2FF6D1BF
:108FB00003B0BDE8F08FB368002BF6D17835B46FFD
:108FC0004D44B246002CF0D02369D4F808800093B9
:108FD00001F0A4FC804530D200224FF002080121AC
:108FE000531C01FA02F2E1680A42D8B207D0DAF85B
:108FF000742022B1314601939047019B8046082B93
:109000001A46ECD1E368C3B1214628460BF016FF9F
:10901000DAF80C3073B1B8F1000F0BD018F0020F72
:10902000214618BF237531F8142B2346002002F087
:10903000E7FE02E020460CF0FBF9009CC2E700BF0F
:10904000341200107047421ED3B2072B04D8D20747
:1090500004D40130C0B270470020704718467047F2
:109060000D4970B500237C240D4604FB031256689D
:109070006EB11268C22A05DCC12A08DA552A06D068
:10908000A22A00E0CC2A1CBF04FB03525062013329
:109090001A2BEAD170BD00BF3412001000207047B7
:1090A000084B094A00211960D26C42B101384010C6
:1090B000C0EBC00003441A7A61F300021A72022066
:1090C000704700BF302B00100010001008B50021C1
:1090D00003F01CFA0138C3B2072B94BF40104FF0C5
:1090E000FF3008BD2DE9F0470746FFF7EFFF0028E6
:1090F0002CDB184EDFF86090C0EBC0000644002562
:109100004FF00608D9F808302B4113F0010F05F194
:10911000010A15D020200BF031FF20220446002147
:1091200020F8148B14F026F880232375677584F8D3
:1091300016A0735DE375002363762046FFF71EFFDC
:109140005546022DDED10020BDE8F0874FF0FF30FC
:10915000BDE8F087342B00100010001070B51446E5
:10916000054680BBD28A1A70E28A637D002A70D1DC
:109170000621032B218028D0042B02D0012B72D191
:1091800043E00120FFF76CFFF220F7F7D9FBF7F778
:10919000C9FB09F0D5FF02214020F7F717FC09F0C1
:1091A000CFFF02214820F7F711FC09F0C9FF022187
:1091B0005020F7F70BFC09F0C3FF02215820F7F706
:1091C00005FC09F0BDFF012070BD658E84F83220DA
:1091D00084F8332004F114012022F7F78FF8854238
:1091E00041D1238B224A04F11A05182404FB0324DD
:1091F00004F11806B442E6D055F8041B2046F7F7F0
:1092000039FC09282FD10434F4E71A4D2B6C022BBA
:1092100002DD1948FFF708FDA26915490020F7F79C
:1092200059F8E36998422B6C05D0022B1BDD1348DB
:10923000FFF7FAFC17E0022B02DD1148FFF7F4FC00
:10924000A3692B60E3696B60F6F7DAFF04F008FFAF
:10925000B9E753B1022B02D9042B06D10120FFF745
:10926000FFFE284670BD022070BD002070BD00BF0B
:10927000000008080010001093D40108AAD40108C7
:10928000BED4010870B5104B517E1C6A00261D46E5
:10929000BCB16368994203D1207A537D984202D0D1
:1092A00026462468F4E7094B1B6C012B02DD0848B5
:1092B000FFF7BAFC0EB923682B62A4F114000CF07E
:1092C000B7F8012070BD00BF302B00100010001057
:1092D000CED401082DE9F843194B1C6A0123074637
:1092E000884615461E4600EB0209C4B1227A424563
:1092F00013D199F81420636838469A4208BF0026B3
:109300000CF0E0F9431962681A750146034631F81A
:10931000142B002002F074FD00232468E5E75BB104
:1093200038460CF0CFF9054401462C75034631F858
:10933000142B204602F064FD3046BDE8F88300BFE0
:10934000302B0010104607231380417D0622FFF7C3
:10935000C1BF00002DE9F84307231380507D144658
:10936000FFF7B4FE002840DBE77D582F18D0802F90
:109370003BD1A27D204B257E013AC0EBC0001844B2
:10938000C2F10101014410440B79027905712B44AB
:109390009B1A23EAE3730B71607DFFF7A3FE24E0C1
:1093A00094F8158094F818904046FFF78FFE061E3B
:1093B0001BDB20200BF0E2FD06230546202220F8CF
:1093C000143B002113F0D6FE0B4A2F75C6EBC606E0
:1093D0000023164485F815802B7685F81790B2790E
:1093E000AA756B762846FFF7C9FD617D20460622E7
:1093F000BDE8F843FFF76EBF302B0010F8B5507D85
:1094000015460CF0F5FC0028C0F2B180EB7D012B75
:1094100006D0022B09D1574B5B6B83F0080301E0A8
:10942000544B5B6BC3F3C00300E00323AC7D342CCF
:1094300009D8312C60D2112CC0F09480122C0BD999
:10944000212C13D08EE0412C56D0C0F08B80A4F19B
:10945000990117297CD985E001286A7D4FF0000128
:109460000CBF042003200CF0E1FC7BE0414E726B4A
:1094700012F0200F26D000F099FF736B1B0E1DBF5A
:10948000706B001680024FF400400BF077FD3A4BF2
:1094900018601C4668B100238380736B1B0E1FBFCE
:1094A000344B5B6B9B0B03F47C4308BF4FF40043CE
:1094B000038000F08DFF2368002B53D12F48FFF766
:1094C000B3FB4FE0716B6A7D11F004010CD02C4CA2
:1094D0000720616A0CF0AAFC2A4B002B42D0606A7C
:1094E000FFF746F860623DE0766BF60604D501288A
:1094F0000CBF02200120B6E7332C6A7D12D00BD8B6
:10950000212C0DD0322C1DD11A49496B11F0040FBA
:1095100014BF0521012116E0342C0BD0412C11D1B0
:10952000042110E01349496B11F0040F14BF062108
:10953000022108E00F49496B11F0040F14BF072105
:10954000032100E0002101280CBF052006208AE746
:109550006A7D07200CF06AFC0A4B1BB1A87D993884
:10956000FFF706F80522697D2846FFF7B3FE0020C5
:10957000F8BD00BF00100010442E0010E6D4010812
:10958000302B0010718500082DE9F0418046507D98
:1095900015461E46FFF79AFD041E02DA0020BDE8BC
:1095A000F081687D0CF024FC0028F7DB33781D4F38
:1095B0001D49620093403370B8F1000F1AD1C4EB1B
:1095C000C4043C440126227A3E6032432272AA7DC2
:1095D000A271EA7DE271CA6C002ADFD1227A42F0E0
:1095E000020222720CF0B6FB687DFFF77BFD30466D
:1095F000BDE8F081CB6C5BB1C4EBC4033B441A7A89
:1096000042F002021A720CF0A5FB687DFFF76AFDBA
:1096100000233B60697D28460522BDE8F041FFF745
:1096200059BE00BF302B00100010001070B51D4B4C
:109630009A681D4B502404FB0034A37E013B1A4161
:10964000D1072ED501384010184EC3EBC3030E22AC
:1096500002FB0033334493F82C50C5F3400505BB9F
:10966000C0EBC000304404300379DA0719D565F344
:10967000000365F34103037120200BF07FFC0623F8
:109680000646294620F8143B202213F073FD52238E
:109690003375617E717530460522BDE87040FFF775
:1096A00019BE70BD0010001038200010302B0010C3
:1096B00010B500283CD1517E244C11F0100F10D071
:1096C0001870D37D917D1B0443EA0163117E43EA48
:1096D0000123E361537D2362F6F792FD04F0C0FCA1
:1096E00032E01B4A4FF0FF311160A16A01B91160ED
:1096F0001168013104D1E16A11B9154901200860EE
:109700001168013104D1216B11B91149032008609E
:109710001168013104D1616A11B90D490220086054
:10972000126801324FF000000FD11870022010BDF6
:10973000074B1B68032B07D8517D044A083302EB03
:1097400083035960F6F75CFD012010BD0010001086
:1097500008120010F8B5507D14460CF049FB0028A3
:1097600009DA264B1B6C002B03DD617D2448FFF7D3
:109770005BFA0020F8BD607DFFF7A8FC061EF8DB51
:10978000204D677F2B6A0BB35A68974203D1197A31
:10979000627D914201D01B68F5E7184B1B6C002BD2
:1097A00003DD39461848FFF73FFAC6EBC6063544D5
:1097B00001202B7AC3F340032376AB79A375EB79B1
:1097C000E3752B7963766B79A376F8BD0B4B1B6C35
:1097D000012B03DD39460D48FFF726FA09200BF06F
:1097E000CDFB40B103462A6A43F8142F2B62637DF8
:1097F00003778761D9E72B6A0360FFDE0010001052
:1098000008D50108302B00104CD5010836D50108C9
:1098100070B50646507D14461D460CF0E9FA002846
:1098200033DB607DFFF752FC00282EDBA27D56B9AA
:10983000012A01D0022A00D12A702B78400003FAB5
:1098400000F0287021E0012A10D007D3022A15D198
:109850000F4AE37DC0EBC00010440EE00C4AE37DEC
:10986000C0EBC00010440371E37D06E0084AE37DCD
:10987000C0EBC0001044037100E04371617D2046DD
:109880000522BDE87040FFF725BD002070BD00BF78
:10989000302B001070B51D46062306461380507D00
:1098A00014460CF0A5FA002818DB607DFFF70EFCCB
:1098B000002813DB2EB92B78400003FA00F0287043
:1098C0000CE0074AE37DC0EBC00010440522C371E1
:1098D000617D2046BDE87040FFF7FCBC002070BDF4
:1098E000302B001070B51D46062306461380507DB0
:1098F00014460CF07DFA002818DB607DFFF7E6FBCC
:10990000002813DB2EB92B78400003FA00F02870F2
:109910000CE0074AA37DC0EBC00010440522837110
:10992000617D2046BDE87040FFF7D4BC002070BDCB
:10993000302B0010F8B50746507D14461E460CF03B
:1099400057FA054667B900281CDB607DFFF7BEFBB0
:10995000002817DB3378400003FA00F0307011E084
:1099600000280ADB084A136E23B1013B13660BB9CA
:1099700002F0FEFB28460CF02BFB0622617D204600
:10998000FFF7A8FC0020F8BD302B00102DE9F743AD
:10999000364E4FF0500909FB0069074699F8190047
:1099A00014460CF025FA0028B04607F1FF3507DA17
:1099B000E07D99F819106A10C0F3C0000CF0F2F9BC
:1099C00000F0ACFF502606FB07896D10C9F838007F
:1099D00000F0A4FFC9F82400237E8DF80730637ED1
:1099E0008DF80630A37E8DF80530E37E8DF80430C7
:1099F000019BC9F8343099F81A301D4A94F82000B8
:109A0000013B0E21C3EBC30301FB05331344217F4C
:109A100083F82A10617F83F82B10A17F83F82D1023
:109A2000E17F83F82E1003F1280183F82800E37DFD
:109A30000879C3F3800363F341001368087113B915
:109A40003846FFF7F3FD06FB0786032196F828301A
:109A5000013386F82830384602F0A2FB617D0E22E1
:109A6000204603B0BDE8F043FFF734BC38200010B7
:109A7000302B00102DE9F04F2D4D93B080468946D4
:109A800005F12404002641F2872BA5F1060AD8F837
:109A90000000584542DCC6EBC603534462791B7A8A
:109AA000109215F8012C0F9214F8022C0E9215F852
:109AB000022C0D9222790C922A790B92E2780A926A
:109AC000EA780992227A0892627807926A78069276
:109AD000E2790592227804922A78039203F0010237
:109AE00002920E2202FB06A2C3F3400392F8331047
:109AF000C1F34001019192F82C200E49C2F34002BB
:109B0000009248443246FFF7ADF8D8F8007009EBF0
:109B1000070013F095FB3844C8F800000136042E06
:109B200005F1070504F10E04B1D113B0BDE8F08FC3
:109B3000362B00106AD501082DE9F041234C23682B
:109B40000D462646002B3DD1214B502202FB003012
:109B5000477E3846FFF7BAFA041E33DB6B1C04BF9E
:109B6000C4EBC4039B194FF0060804BF1D7AC5F36C
:109B700040052020B5B10BF001FAC4EBC404054642
:109B8000202220F8148B002113F0F4FA34445023DF
:109B90002B756F75A379AB75E379EB7500236B7645
:109BA00028460DE00BF0EAF920220446294620F869
:109BB000148B13F0DFFA5223237567756576204600
:109BC000FFF7DCF90020BDE8F08100BF302B00106A
:109BD0003820001010B5044600F0E8FB054B03EBFD
:109BE00084000123436601F0F9FCBDE8104000F059
:109BF000EFBB00BF302B001010B50124204601340C
:109C0000E4B2FFF7E7FF092CF8D110BD70B50923C6
:109C10001380144B1D6D06461446E5B9D37D5033B1
:109C2000DBB20F2B17D8507DFFF750FA002812DB5C
:109C30000D4BC0EBC0001844037965F300030371BA
:109C40009B0706D53046FFF7FEF910B12946FFF70E
:109C500073FFFFF7D1FF0822617D2046FFF73AFB33
:109C6000002070BD00100010342B001070B50723C9
:109C70001380144B1D6D06461446E5B9D37D503351
:109C8000DBB20F2B17D8507DFFF720FA002812DB2C
:109C90000D4BC0EBC0001844037965F3000303715A
:109CA0009B0706D53046FFF7CEF910B12946FFF7DE
:109CB00043FFFFF7A1FF0622617D2046FFF70AFB65
:109CC000002070BD00100010342B0010F8B50646BF
:109CD000507D14461F46FFF7F9F9051E01DA0020F2
:109CE000F8BD607D0CF084F80028F8DB3B786A0052
:109CF00093403B70EA00114B7EB9521B1A4401217C
:109D00001960137A66F300031372FFF775FF0C4BAB
:109D1000D86CB0FA80F04009F8BD0021521B1960E0
:109D2000134404331A7961F341021A71617D2046AC
:109D30000522BDE8F840FFF7CDBA00BF302B001078
:109D40000010001008B5094B094A00211960D26CB7
:109D500052B101384010C0EBC00003441A7A61F3DD
:109D600000021A72FFF748FF002008BD302B0010D8
:109D7000001000102DE9F843914F3D7814467DB94D
:109D8000DFF854828F4E4FF0140909FB058393F8D6
:109D900069000CF02DF873190435202D5860F4D1AA
:109DA0003B78022B52D0227E511E02294ED8864982
:109DB0008D5CAB424CD0012D844E2CD1A17D7160C5
:109DC0002A4628460CF0B6F84FF0FF31084600222C
:109DD0000BF0E8FF4FF0FF3108462A460BF0E2FF98
:109DE0004FF0FF31084602220BF0DCFF4FF0FF314D
:109DF000084603220BF0D6FF4FF0FF3271680020B7
:109E00000BF0D0FF724B9B68032B724B0CBF0222EE
:109E100001221A661AE07168DFF8BC81DFF8A491AC
:109E2000012200200CF086F80025502606FB058351
:109E300093F8691029B109EB85036A1058680BF093
:109E4000B1FF0235082DF1D102F092F9012566E04B
:109E5000A07DB8B10BF0CCFF012813D100235E49DF
:109E600018465A18A57D92F869605033AE4208BF73
:109E7000D066B3F5207FF4D14FF0FF32A17D1046BC
:109E80000BF090FFE07DB8B10BF0B2FF012813D1C9
:109E90000023514918465A18E57D92F869605033FD
:109EA000AE4208BFD066B3F5207FF4D14FF0FF3249
:109EB000E17D10460BF076FF607EA8B10BF098FFB5
:109EC00090B9454A01218318657E93F86960503046
:109ED000AE4208BFD966B0F5207FF4D14FF0FF3213
:109EE000617E10460BF05EFFA07E0028AED00BF026
:109EF0007FFF0028AAD1384A01218318A57E93F854
:109F000069605030AE4208BFD966B0F5207FF4D109
:109F10004FF0FF32A17E10460BF044FF96E7284633
:109F20000135EDB2FFF756FE092DF8D190232A4EE8
:109F30002375257E737E6375002D3ED13B78A57514
:109F4000012BE5756576A57608D00DD3022B33D1AC
:109F50000423237696F86930A3752EE01B4B5B68CB
:109F6000A3750323237628E00BF03CFE002814BFE2
:109F7000022301231349237633464A19526812B14A
:109F8000012A0AD012E0A27D1AB993F86920A275BD
:109F90000CE093F86920E27508E0627E1AB993F844
:109FA0006920627602E093F86920A2760835202DB8
:109FB00003F1A003E1D100E025760120BDE8F8839C
:109FC000F4240010B82B001087D4010808120010E8
:109FD00000100010302B00103820001000207047B7
:109FE000704700002DE9F347064620200AF0C6FF1F
:109FF000044668B34B4F502505FB0675A046687EA6
:10A000000BF0F6FE0F2228F8142B00218146404663
:10A0100013F0B0F85523237500F080FC030E23766F
:10A02000C0F307436376C0F30723A376E0766B7E25
:10A03000637595F82030019003F0FD0306F1FF3AB7
:10A04000012B4FEA6A0AE37D0FD143F010030EE0C3
:10A05000354B3649364840F2D742FEF7E5FD01233D
:10A060000093009B002BFCD1C4E723F010034FEAC0
:10A07000CA02304DE375CAEB02032B44CAEB020A55
:10A080001B7A13F0010FE37D554414BF43F0040322
:10A0900023F00403E375AB792377EB7963774846C4
:10A0A0000BF034FEC0B26872A07748460BF044FE55
:10A0B0005023C0B203FB0673E0779A7EA872154462
:10A0C000EA7884F82020587ED8B1DB69002B01DBC8
:10A0D000A37502E00BF08CFEA075174B1B681BB13B
:10A0E000E37D43F00103E375502303FB06735A7EBF
:10A0F000124B1B689A4206D1E37D43F00203E375DD
:10A1000001E0FF23A375502303FB06772288BB7E63
:10A1100084F8213041462346304601F071FE02B0FA
:10A12000BDE8F08738200010D9D501088CD401088B
:10A13000DDD50108302B0010A02D0010F8240010F0
:10A140002DE9F74F6D4CDFF8C081DFF8B8A1254647
:10A15000012758F8043B5FFA87FBBE001BB3584643
:10A16000FFF740FF00F0DAFBDAF814301844644BD4
:10A1700033449860DAF814109A68B2FBF1F29A60EE
:10A18000DAF814109A684A439A609A68642101FBCD
:10A1900007229A6000F00AF958F8043C63B1013BC9
:10A1A00048F8043C08E0564B3344D3F8089000F0DC
:10A1B000B5FB8145D3D351E000F00AF995F8693039
:10A1C000002B4BD095F87030012B09D004D3022B13
:10A1D00044D14FF0D10B05E04FF0D10BC12202E08A
:10A1E0004FF0D30BC322202001920AF0C7FE0723B1
:10A1F000038000936FF04F03037595F86910417564
:10A2000095F86AE0019A80F816E04FF000090646DA
:10A21000C27580F81890062280F81990FFF75AF856
:10A2200030460BF005F920200AF0A8FE009B0380C1
:10A230006FF04F03037595F86910417595F86A3012
:10A240008375064680F8189080F8199080F817B04A
:10A250000622FFF73FF830460BF0EAF80137092FE6
:10A2600005F150057FF475AF264FDFF8A08000257B
:10A27000D4F874A000F052FBC0EB0A006E1C00285A
:10A280005FFA86F9D4F874A004DA00F047FBCAEB51
:10A29000000003E000F042FBC0EB0A00BB699842FB
:10A2A00024DD00F03BFB94F86A306067BA68013B3C
:10A2B00042FA03F3DB0719D50221484601F070FF8B
:10A2C00094F86A20013A6B10C2EBC2020E2505FB1E
:10A2D0000325454495F82C306FF3410385F82C3065
:10A2E000D8F8003013B94846FFF7A0F9082E3546D4
:10A2F00004F15004BCD103B0BDE8F08F3820001049
:10A300000812001000100010982B0010302B0010C5
:10A3100003480068006880F3088862B600DF00BF69
:10A3200008ED00E04FF0807300E90A00034B40F8AD
:10A330000C3C40F8202C4038704700BF89A300082F
:10A34000064B19680868B0E8F00F80F309884FF0F1
:10A35000000080F311884EF00D0E70475C2C001049
:10A36000044B4FF080521A60BFF34F8FBFF36F8FD3
:10A37000704700BF04ED00E0EFF311804FF0BF0124
:10A3800081F311887047002007B5074B1B68013324
:10A3900002D1FFF7F1FF05E001230193019B002BA0
:10A3A000FCD1F6E7FEE700BFCC1E001008B5FFF7B2
:10A3B000E3FF044A136801331360BFF34F8FBFF309
:10A3C0006F8F08BDCC1E001080F31188704700000D
:10A3D000034B18680138186008B9FFF7F5BF7047DC
:10A3E000CC1E0010EFF309800C4B1A6820E9F00F27
:10A3F00010602DE908404FF0BF0080F3118800F095
:10A400009DFB4FF0000080F31188BDE808401968FB
:10A410000868B0E8F00F80F3098870475C2C0010E2
:10A4200008B5FFF7A9FF00F085FA18B1044B4FF00B
:10A4300080521A600020BDE80840FFF7C5BF00BF8A
:10A4400004ED00E0064B4FF47A721B68B3FBF2F3A5
:10A45000044A013B1360044B07221A60704700BF97
:10A460007C23001014E000E010E000E013B51F4B67
:10A470001A78D2B20192FF221A701B78DBB28DF8E3
:10A4800003309DF803201A4B02F0BF021A70072216
:10A490005A6000219DF80300000602F1FF3408D540
:10A4A0009DF803205200D2B28DF8032001212246EC
:10A4B000F0E701B15A605A68120202F4E0625A6091
:10A4C000019B0A4ADBB213700A4B1A6842F47F02FE
:10A4D0001A601A6842F07F421A60FFF7B3FF064B1A
:10A4E00000201860FFF714FF02B010BD00E400E088
:10A4F000E02B001020ED00E0CC1E001082B0EFF346
:10A5000005830F2B0D4A09D80D4B52681B6803F4C5
:10A51000E063934210D9012301930AE009495B5C8F
:10A5200011789942F0D901230093009B002BFCD1B4
:10A53000EAE7019B002BFCD102B07047E02B001032
:10A540000CED00E0F0E300E0104B30B51C461A685B
:10A55000824201D21346FAE759685D18A84201BF4A
:10A56000406809181846596041684518AA4207D141
:10A57000A468A24204D05268114441601A6812686B
:10A580000260984218BF186030BD00BFE82B001071
:10A590002DE9F041044600F0B7F92F498B68BBB9AB
:10A5A0002E4A22F0070202F5BF3581E80C00C5F8FB
:10A5B000F431C5F8F0312A4B05F5F87082E809004E
:10A5C000284A88601368083B13604FF00043CB6053
:10A5D000D1F80C8018EA040F35D1002C34D004F1E6
:10A5E00008035A071CBF23F0070308334BB31D4E63
:10A5F0003768BB4227D80D68174A6868834203D87A
:10A6000089688D4206D11EE028680028F8D02A46C5
:10A610000546F2E72968146811606A68D21A102AA0
:10A6200004F1080404D9E81842606B60FFF78CFF5E
:10A630006B68FF1A48EA03036B60002337602B60E6
:10A6400002E01C4600E0002400F0F6F90CB9FEF729
:10A65000F7F82046BDE8F081E82B00100800002044
:10A66000F07F0100D01E001013B5044648B3164A0F
:10A6700050F8043CD26813EA020105D054F8080CE3
:10A6800060B10123019305E00120009000980028AB
:10A69000FCD1F3E7019B002BFCD112E089B123EA46
:10A6A000020344F8043C00F02FF9084A54F8041C53
:10A6B0001368A4F108000B441360FFF745FF00F096
:10A6C000BBF902B010BD00BFE82B0010D01E001077
:10A6D00008B5034C2368012BFDD9FFF741FEF9E7CC
:10A6E000F82B001010B50C4B5A6E50609A6E9042C9
:10A6F000044606D2D86E596EBDE81040043100F011
:10A700008DBB186F596E043100F088FB034B1A683B
:10A71000944238BF1C6010BDF82B0010D41E0010EE
:10A720002DE9F74F0CAE0F4615469A4696E84009BC
:10A73000814610B1042E06D80AE001230093009B45
:10A74000002BFCD1F6E701230193019B002BFCD1E8
:10A750005020FFF71DFF0446002800F0A680BBF143
:10A76000000F03D1A800FFF713FF00E05846206355
:10A7700018B92046FFF778FF97E0AD002A46A521DB
:10A7800012F0F8FC236B043D1D4425F007057B1EE9
:10A7900004F133020F3713F9011F02F8011F93F977
:10A7A000001009B1BB42F6D1042E4FF00003B346AE
:10A7B00004F1040728BF4FF0040B84F843303846F7
:10A7C000C4F82CB0C4F84CB000F019FB04F1180028
:10A7D00000F015FBCBF105032461A36164625246CE
:10A7E00049462846FFF79EFD2060B8F1000F01D0D2
:10A7F000C8F800402F4DFFF7D9FD6B6F01336B6731
:10A800006B6E33BB6C666A6F012A2AD1984605EBE2
:10A81000080008F1140800F0E7FAB8F1640FDFF857
:10A820009490F4D109F1780A504609F18C0800F0AF
:10A83000DBFA404600F0D8FA09F1A00000F0D4FAA3
:10A8400009F1B40000F0D0FAC9F870A0C9F86C8022
:10A8500007E0D5F8C83023B96B6EDB6A9E4228BF8B
:10A860006C66D5F8CC30D5F8D0200133C5F8CC30A3
:10A870006364E36A934288BF0E4A4FF0140000FB02
:10A880000350394688BFC2F8D03000F0BBFAFFF75A
:10A890009FFDD5F8C83033B1064B5B6EDB6A9E4234
:10A8A00001D9FFF75DFD012001E04FF0FF3003B05B
:10A8B000BDE8F08FF82B001030B587B0002403946A
:10A8C000029401940094234678220C490C48FFF727
:10A8D00027FF0128054608D1FFF74EFD094BC3F8B5
:10A8E000C8509C66FFF7C2FD05E020B9012305931F
:10A8F000059B002BFCD107B030BD00BF07D6010877
:10A90000D1A60008F82B0010034AD2F8D430013346
:10A91000C2F8D430704700BFF82B001010B5FFF715
:10A9200045FD034B9C6EFFF753FD204610BD00BF55
:10A93000F82B00102DE9F74F3D4CD4F8D430002B04
:10A9400047D1A36E0133A366D4F86880B8F1000F35
:10A950001ED1236F1B687BB9236FE26E2267E3660B
:10A96000D4F8D8300133C4F8D830236F1A68314B8B
:10A9700042B94FF0FF320AE001230193019B002B03
:10A98000FCD1E9E72A4A126FD268D26852681A608D
:10A99000284F3B6898454FF0000511D3DFF89090A1
:10A9A0004FF0140B236F1B6813B94FF0FF3306E011
:10A9B000D9F87030DB68DE687368984510D23B6068
:10A9C000636EDA6A14235343E358022B28BF012530
:10A9D00024E0D4F8DC300133C4F8DC3000251DE07D
:10A9E00006F1040A504600F031FAB36A1BB106F1D1
:10A9F000180000F02BFAF06AD4F8D030984288BFE3
:10AA0000C9F8D00051460BFB004000F0FBF9636E23
:10AA1000F26ADB6A9A4228BF0125C3E7D4F8E03026
:10AA2000002B18BF0125284603B0BDE8F08F00BFFA
:10AA3000F82B0010D41E00102DE9F743314CD4F848
:10AA4000D4305BB1FFF7B2FCD4F8D4302D4D013BCC
:10AA5000C4F8D430D4F8D43043B105E001230193D5
:10AA6000019B002BFCD1EDE7002444E06B6F002B31
:10AA7000FAD04FF01408A946D4F8A020214BFAB11F
:10AA8000D5F8AC30DE68371D06F1180000F0DEF9AD
:10AA9000384600F0DBF9F06AD5F8D030984288BF2C
:10AAA000C5F8D000394608FB004000F0ABF9636EF2
:10AAB000F26ADB6A9A42DFD30123C9F8E030DBE7B0
:10AAC000D3F8DC2032B9D4F8E040012CCCD1FFF728
:10AAD00047FC10E01D460126D4F8DC30002BF2D0F4
:10AAE000FFF728FF08B1C5F8E060D4F8DC30013B7F
:10AAF000C4F8DC30F0E7FFF76BFC204603B0BDE89C
:10AB0000F08300BFF82B001010B518B9BDE8104055
:10AB1000FFF726BCFFF7F8FE074A936EC418506E85
:10AB2000043000F093F92046FFF7DCFDFFF784FFC7
:10AB30000028EBD010BD00BFF82B001037B5284B14
:10AB4000D3F8D4201C461AB10122C3F8E02045E016
:10AB5000C3F8E0205A6E5B6E12681B6B9A4204D8F1
:10AB6000606E616E3431FDF762FE636E1D49186BD5
:10AB70001B4D142212F032FA20B1686E696E343126
:10AB8000FDF755FE164914220120D4F8D030144D9B
:10AB90005343E3586BB9D1F8D0302BB1D4F8D0304F
:10ABA000013BC4F8D030F0E70190019B002BFCD1B1
:10ABB000F4E7D5F8D010142202FB01F3EA180833A9
:10ABC0005068406850602B44984204BF436853600B
:10ABD000142303FB01414B68DB68636603B030BD9F
:10ABE000F82B0010F3D5010837B50D4688B10F4C8E
:10ABF000616E183100F012F9606E043000F026F931
:10AC00006B1C0CD1616E04F1B400043100F0FAF851
:10AC100009E001230193019B002BFCD1E7E7A06E23
:10AC20002844FFF75FFD03B030BD00BFF82B0010D4
:10AC300073B5C368DD68C5B105F11806164C30461A
:10AC400000F004F9D4F8D430ABB92E1D304600F032
:10AC5000FDF8EB6AD4F8D0201420934288BFC4F8E2
:10AC6000D030314600FB034008E001230193019BF3
:10AC7000002BFCD1E0E7314604F1A00000F0C2F85F
:10AC8000636EEA6ADB6A9A4225BF034B012000200B
:10AC9000C3F8E00002B070BDF82B001082B038B1EC
:10ACA000064BD3F8D8209B6E0260436002B0704719
:10ACB00001230193019B002BFCD1F1E7F82B00103D
:10ACC00037B50D46044608B15DB905E00123009390
:10ACD000009B002BFCD1F7E701230193019B002B84
:10ACE000FCD1FFF763FB2B680E4A581C916E10D005
:10ACF000D2F8D82020689042626801D091420AD2EE
:10AD0000881A834207D9521A13442B602046FFF752
:10AD1000C5FF002400E00124FFF75AFB204603B0E2
:10AD200030BD00BFF82B0010024B0122C3F8E02019
:10AD3000704700BFF82B0010014B586E704700BFE2
:10AD4000F82B001070B5044648B3154BC26A596E13
:10AD5000C96A8A421D4622D2596EC96AC1F10501EB
:10AD60008161142101FB02324169914214D1061D17
:10AD7000304600F06BF86B6ED5F8D020DB6AE362EA
:10AD8000934201D9C5F8D0301420314600FB03505E
:10AD9000BDE8704000F036B85B6EDB6AC36270BD20
:10ADA000F82B001038B50446D8B1C26AC36C9A4279
:10ADB00017D0051D284600F049F8E26CE262C2F1A6
:10ADC0000503A361074BD3F8D0108A4288BFC3F8AC
:10ADD000D0201420294600FB0230BDE8384000F0A6
:10ADE00011B838BDF82B001000F1080343604FF094
:10ADF000FF32C36003610023826003607047002359
:10AE00000361704743684B609A688A609A68516032
:10AE10009960086103680133036070470A68531C36
:10AE200030B501D1036907E000F108035C682568CB
:10AE3000AA4201D32346F9E75A684A6091608B60C1
:10AE40005960086103680133036030BD436882685C
:10AE50009A60836842685A6003695A68904204BFE6
:10AE600082685A60002202611868013818607047D1
:10AE700038B51546026C044632B905683DBB4068DA
:10AE8000FFF790FF656022E065B9806812F0D8F89E
:10AE9000A268236C13446268A360934217D32368AB
:10AEA000A36014E0C06812F0CBF8236CE26821685C
:10AEB0005B421A448A42E2603EBF62689B18E360CC
:10AEC000022D04D1A36B13B1A36B013BA363A36B4E
:10AED0000133A36338BD034630B41C6808465CB137
:10AEE000D9681A6C5D681144A942D96028BFDC603A
:10AEF000D96830BC12F0A4B830BC704738B50446ED
:10AF0000FFF754FA04F12405A36C002B0BDD636AF0
:10AF10004BB12846FFF78CFE08B1FFF705FFA36C85
:10AF2000013BA364F0E74FF0FF33A364FFF750FA4F
:10AF3000FFF73CFA04F11005636C002B0BDD23696D
:10AF40004BB12846FFF774FE08B1FFF7EDFE636CC6
:10AF5000013B6364F0E74FF0FF336364BDE83840C2
:10AF6000FFF736BA37B50D46044698B1FFF71EFA1B
:10AF7000206CE36B2268A2604343D1181B1A134470
:10AF80006160E36000214FF0FF33A1636364A36459
:10AF900035B110E001230193019B002BFCD1E5E7C3
:10AFA000236983B104F11000FFF742FE01280AD1A2
:10AFB000FFF7D6F907E004F11000FFF715FF04F1E1
:10AFC0002400FFF711FFFFF703FA012003B030BDA3
:10AFD000F7B50E4617460546B8B15020FFF7D8FA28
:10AFE000044690B106FB05F00130FFF7D1FA20606E
:10AFF00040B1E563266401212046FFF7B3FF84F8E2
:10B000004D7007E02046FFF72FFB01230193019CC1
:10B01000002CFCD1204603B0F0BD2DE9F04389B0EF
:10B02000884601921E46044618B1B8F1000F0DD1B2
:10B0300005E001230393039B002BFCD1F5E7236C70
:10B0400023B101230493049B002BFCD1022E07D1D2
:10B05000E36B012B04D001230593059B002BFCD14E
:10B060000027B9462FE017B906A8FFF717FEFFF72C
:10B07000AFF9FFF749FCFFF799F9636C013308BF9B
:10B08000C4F84490A36C013308BFC4F84890FFF79C
:10B090009FF901A906A8FFF713FE00283ED1FFF78C
:10B0A00085F9A76BE56BFFF793F9AF4230D10199B2
:10B0B00004F11000FFF798FD2046FFF71FFFFFF790
:10B0C000BBFC10B30127FFF771F9A26BE36B9A4247
:10B0D00001D3022E12D1324641462046FFF7C8FE68
:10B0E000636A3BB104F12400FFF7A2FD012801D1FE
:10B0F000FFF736F9FFF76CF9012015E0019D002DEF
:10B10000B1D1FFF765F928460EE0FFF729F9D9E735
:10B110002046FFF7F3FEFFF78FFCD3E72046FFF74B
:10B12000EDFEFFF789FC002009B0BDE8F08373B5A0
:10B1300006465020FFF72CFA0446E0B10123002513
:10B14000C3634FF0FF3385634560436405608364E8
:10B150008560C560056480F84D601030FFF744FEDF
:10B1600004F12400FFF740FE2B462A4629462046DC
:10B17000FFF753FF04E001230193019B002BFCD157
:10B18000204602B070BD2DE9FF41884616461D4697
:10B19000044618B1B8F1000F0DD105E00123019369
:10B1A000019B002BFCD1F5E7236C23B10123029313
:10B1B000029B002BFCD1022D07D1E36B012B04D0A5
:10B1C00001230393039B002BFCD1FFF797F9FFF7B3
:10B1D000D3F8A26BE36B9A42074601D3022D17D135
:10B1E0002A4641462046FFF743FEA36C01330AD1AD
:10B1F000636A5BB104F12400FFF71AFD30B12EB190
:10B200000124346005E0A36C0133A364012400E051
:10B2100000243846FFF7D8F8204604B0BDE8F08196
:10B220002DE9F04387B00F4601929946044608B1D4
:10B230006FB905E001230293029B002BFCD1F7E7D5
:10B24000236C23B101230393039B002BFCD1002625
:10B25000B04638E016B904A8FFF720FDFFF7B8F8AC
:10B26000FFF752FBFFF7A2F8636C013308BFC4F885
:10B270004480A36C013308BFC4F84880FFF7A8F8E6
:10B2800001A904A8FFF71CFD002858D1FFF78EF88C
:10B29000A56BFFF79DF8002D4BD1236833B9FFF75D
:10B2A00085F86068FFF74EFDFFF792F8019904F109
:10B2B0002400FFF799FC2046FFF720FEFFF7BCFBB8
:10B2C000002833D00126FFF771F8A36B3BB3394652
:10B2D0002046E568FFF7FFFDB9F1000F12D1A36B1F
:10B2E000013BA363236813B9FFF726FD6060236960
:10B2F0008BB104F11000FFF79BFC01280BD1FFF785
:10B300002FF808E0636AE5602BB104F12400FFF731
:10B310008FFC0028F3D1FFF75BF8012015E0019DB9
:10B32000002D97D1FFF754F828460EE0FFF718F8E4
:10B33000C8E72046FFF7E2FDFFF77EFBC2E72046A5
:10B34000FFF7DCFDFFF778FB002007B0BDE8F083D6
:10B350001FB50446FDF750FBE3680BB1206B98471F
:10B3600000236268E06A02A9FFF75AFF012820D192
:10B37000E36B0133E363029B002B07DBA26893427C
:10B3800004DA029AA36893420CDC16E00D4B0E49D6
:10B390000E484B22FDF748FC01230193019B002B33
:10B3A000FCD1EEE7236943B153F822302BB1039867
:10B3B00002E063690BB120469847A369002BCFD008
:10B3C0002046CCE734D601080CD60108DDD50108AB
:10B3D0007FB5C36A04460D461646002B3FD00029B0
:10B3E00009DB8368994206DA02950396FDF75AF95C
:10B3F000034660B91BE01C4B1C491D481B22FDF78E
:10B4000013FC01230093009B002BFCD1ECE704AA62
:10B41000002342F80C3D02A9E06AFFF7B4FE019B4D
:10B42000054653B1134B4FF080521A6005E00246B7
:10B4300002A9E06AFFF7F1FD0546FEF7B7FF1DB16F
:10B44000636B0133636302E0A36B0133A363FEF715
:10B45000BFFF15F1FF3018BF4FF0FF3001E04FF094
:10B46000FF3004B070BD00BF79D6010817D60108BF
:10B47000DDD5010804ED00E010B50022044686B0D9
:10B4800008210068FFF7A4FDE062D8B1236A616A71
:10B490000291042293FBF2F2002303930193E369E8
:10B4A000009392B22346A16A0F48FFF739F90128A9
:10B4B00017D00E4B0E490F486522FDF7B5FB01234F
:10B4C00005930BE00C4B0A490A486022FDF7ACFBE0
:10B4D00001230493049B002BFCD1D7E7059B002B91
:10B4E000FCD106B010BD00BF51B3000810D7010851
:10B4F00029D60108DDD50108AED6010808B5FDF74B
:10B5000045FD0820BDE8084002F09CBD143809F054
:10B510008FBF10B50446826841680078FDF735FD9D
:10B52000A4F11400BDE8104009F082BF10B5044634
:10B53000037B826841680078FDF7C8FBA4F1140022
:10B54000BDE8104009F074BF0148FFF795BF00BF88
:10B55000D81E00102DE9F041804610200F461646F7
:10B560001D4609F00BFD044680B180F81480876108
:10B57000C66180F8205000F1140200210748FFF74F
:10B5800027FF002806DA204609F052FF4FF0FF306F
:10B59000BDE8F0810020BDE8F08100BFD81E00109A
:10B5A000F8B507460C200E46154609F0E7FC0446A0
:10B5B00068B107758661C56100F114020121064872
:10B5C000FFF706FF002805DA204609F031FF4FF0AB
:10B5D000FF30F8BD0020F8BDD81E001010B50420C3
:10B5E00009F0CCFC044650B100F1140203210648D6
:10B5F000FFF7EEFE002805DA204609F019FF4FF0AC
:10B60000FF3010BD002010BDD81E001070471FB5C0
:10B61000C3690393836902934369019303690093A8
:10B620000446011D0EC954F81409FFF7EFFF204628
:10B6300004B0BDE8104009F0FBBE00002DE9F3475F
:10B640000420DFF8DC8002F0FDFC002647464FF4C2
:10B65000E0755FFA86F9002475434FF0E00A0AFBB3
:10B66000045AC244DAF80430002B48DDFFF756F9DB
:10B67000DAF80C30C01A142841D9DAF80430002B5B
:10B680000CDDE02101FB0451394400234A680968BC
:10B690004846FFF75FFF00280DDA22E01C4B1D49EA
:10B6A0001D484FF4B672FDF7BFFA01230093009BCB
:10B6B000002BFCD1E5E7202009F060FC00B114303C
:10B6C000E02303FB0453F85058B9144B11491248B6
:10B6D00040F27312FDF7A8FA01230193019B002B9E
:10B6E000FCD1E02303FB04533B44002220201A71C9
:10B6F0005A719A71DA7118725A729A72DA72013446
:10B70000022CAAD10136092EA1D102B0BDE8F087E2
:10B710004CD80108E0D70108DDD5010869D8010837
:10B72000108501202DE9F04F0478D0F80170082C25
:10B7300087B0054614D83C4E502303FB04631B7EA0
:10B740009F424FF000036AD04FF4E078DFF8E890B2
:10B7500008FB04F2019298464FF0E00BCA462FE036
:10B76000324B3349334840F2A512FDF75DFA01230D
:10B770000593059B002BFCD1DDE770216143382048
:10B78000002200FB0811881806300AEB8000406890
:10B7900030B114380391029209F04AFE0399029ADB
:10B7A0000132102AEFD1019B0BFB0830E02200216F
:10B7B000504408F1010811F0DDFCB8F1020F17D078
:10B7C0004FF4E07262430BFB082209EB0201039283
:10B7D000086802910028D0D0143809F029FE029997
:10B7E000039A002009F8020048708870C870C4E706
:10B7F000502337B903FB04635A6952B11F766F7146
:10B800000EE0012F05D103FB04631A690AB11F760C
:10B8100004E0502303FB04640223237600236B71AE
:10B8200007B0BDE8F08F00BF382000107ED80108B7
:10B83000EAD70108DDD50108108501202DE9F04F78
:10B84000C5B285B0082D0090C0F307260BD84FF481
:10B85000E07303FB05F2E023624F03FB0623FB5872
:10B86000002B3AD10CE0604B6049614840F229124C
:10B87000FDF7DAF901230193019B002BFCD1E6E7E8
:10B88000202009F07BFB00B114304FF4E07303FB80
:10B8900005F2E02303FB0623F85088B14FF4E07370
:10B8A000E0226B4302FB06333B44002201201A7165
:10B8B0005A719A71DA7118725A729A72DA720CE0CD
:10B8C0004C4B4A494A484FF49972FDF7ADF90123B0
:10B8D0000293029B002BFCD1E0E74FF0140808FB19
:10B8E00005684FF4E0746C43E02303FB06443C44DA
:10B8F000A246616820685AF8082FDFF8FC90521AB7
:10B9000059F828300144284698478346002865D0D6
:10B91000636863B923681878FDF7BCF901462846C7
:10B92000FDF7CCF9A060FEF7F9FFCAF804006068E3
:10B93000A368584498426060DADB23681B78552B73
:10B9400003D003F0C003C02B04D1FEF7E7FF09EBDF
:10B950008803D863502303FB059999F818309E4259
:10B9600011D04FF4E073E0226B4302FB06333B44FB
:10B97000002201201A715A719A71DA7118725A7282
:10B980009A72DA72ADE74FF4E071E023694303FB8A
:10B990000611394400234A6809682846FFF7DAFD92
:10B9A0000028DEDB202009F0E9FA00B114304FF462
:10B9B000E07303FB05F2E02303FB0623F8500028A5
:10B9C000CFD10C4B09490A4840F24F12FDF72CF930
:10B9D00001230393039B002BFCD1C2E705B0BDE814
:10B9E000F08F00BF108501207ED80108F5D701082F
:10B9F000DDD5010869D80108382000102DE9F3478A
:10BA0000C4B2082C009017D89DF8017056484FF426
:10BA1000E072E023624303FB07220244702161438A
:10BA20001369382505FB07152B44991D00EB81018F
:10BA30008046496869B994E04C4B4D494D484FF4F4
:10BA40008372FDF7F1F801230193019B002BFCD1D8
:10BA5000DAE7163300EB83035B68002B47D1164609
:10BA6000B146012159F8103FDFF8FCA02B442633E2
:10BA700008EB830320465A68FFF792FD002803DA9B
:10BA80000120FFF741F8EBE7D9F800302B440633EB
:10BA90000AEB83035868143809F0CAFCD9F800107F
:10BAA0000D4406350AEB850500232B716B71AB71D4
:10BAB000EB7186F8DC3086F8DD3086F8DE3086F80B
:10BAC000DF302D4B01310B40002BBEBF03F1FF33A4
:10BAD00063F00F030133C9F800304FF4E073E02244
:10BAE000634302FB073343449A69013A9A614FF476
:10BAF000E075E023654303FB075545441A4EAB69E7
:10BB00007BB3A9464FF0700859F8103FD5F8DC0018
:10BB100008FB04F24FF0380808FB0728434403F100
:10BB20001602063306EB830306EB8202596852685D
:10BB3000142303FB04770237104B014453F82730DA
:10BB400020469847D5F8DC300344C5F8DC30D9F8F6
:10BB50000030984408F1160806EB88067368181A36
:10BB6000706002B0BDE8F087108501207ED8010822
:10BB7000FCD70108DDD501080F0000803820001037
:10BB80002DE9F04F0578082D85B0044606D8D4F885
:10BB900001301878FDF77EF860B914E0844B8549D0
:10BBA00085489B22FDF740F801230293029B002B5E
:10BBB000FCD1ECE700EB8502D36C0133D364436A1C
:10BBC000002B40F0E9807D4E3369002B3DD0D4F846
:10BBD00001301B78B12B05D8B02B08D2552B03D0E0
:10BBE000A22B00E0CC2B05D13269022A2DDD32696F
:10BBF000012A2ADD3269032A03DD704A12699A425A
:10BC000023D1336C022B0BDDFEF788FED4F8012024
:10BC10006B4B127853F8253001466A48FDF704F85B
:10BC20000027D4F805309F42336C09DA022B05DD7A
:10BC3000D4F801306448D95DFCF7F6FF0137F0E72E
:10BC4000022B02DD6148FCF7EFFF4FF05008604B1C
:10BC5000DFF88891019308FB05F808F1080898447B
:10BC60000027CA46019A5023012F03FB052302D166
:10BC70001B6923B990E05B69002B00F087804FF4CB
:10BC8000E076E0236E4303FB07664E44B369102B56
:10BC90000BD1D4F8092000212846FFF781FC0028A9
:10BCA00074DA0120FEF730FFF3E7D4F80100103614
:10BCB000143809F0FBFC70237268D4F805003821B1
:10BCC0006B4301FB0733134409EB830109EB830347
:10BCD000C865D4F80100C861D4F80910C3F89C10F5
:10BCE0003C4B01321340002BBEBF03F1FF3363F026
:10BCF0000F03013373604FF4E0736B43E02202FBE8
:10BD0000073353449E690136012E9E613ED1D3F81C
:10BD1000DC3083BB4FF4E076E0236E4303FB076621
:10BD20005644B34670225BF8103F38216A4301FB4A
:10BD300007221344009203F1160206330AEB830331
:10BD4000D6F8DC105868D8F800300AEB82020144BB
:10BD5000526828469847D6F8DC30009A0344C6F863
:10BD6000DC30DBF80030134416330AEB83035A68E7
:10BD7000101A58600AE0184B0E490F48DE22FCF7F3
:10BD800053FF0396039B002BFCD1C3E70137022F1F
:10BD900008F104087FF466AFD4F80100143809F004
:10BDA00047FBA4F1140009F043FB05B0BDE8F08F98
:10BDB0007ED8010803D80108DDD501080010001065
:10BDC0004823001092D8010881D401088ADE0308B4
:10BDD000382000100F000080ACD801081085012029
:10BDE00008B54FF47C620021034811F0C3F9034801
:10BDF000BDE80840FFF740BB10850120181F001068
:10BE00002DE9F34105460D200E461746984609F0E8
:10BE1000B5F820B1082D00F114040FD902E0082D67
:10BE20001ED90446124B134913487322FCF7FCFE3B
:10BE300001230193019B002BFCD18CB12570C4F828
:10BE40000160C4F80570C4F80980224600210B483F
:10BE5000FFF7BEFA002806DAA4F1140009F0E8FAA8
:10BE60004FF0FF3000E0002002B0BDE8F08100BFDD
:10BE70007ED801080AD80108DDD50108181F001076
:10BE8000082873B505460E46144608D800230193CA
:10BE9000E3078DF804508DF805600CD517E0114BC1
:10BEA00011491248ED22FCF7BFFE01230093009BCD
:10BEB000002BFCD1EAE704F0020404F0FF007CB19F
:10BEC000019A0B480221FFF783FAC01708E0019A94
:10BED00007480121FFF77CFA0028ECDA4FF0FF3029
:10BEE00002B070BD7ED8010814D80108DDD5010864
:10BEF000181F001073B5054606200E4609F03EF8DF
:10BF000020B1082D00F1140410D902E0082D1DD92C
:10BF10000446164B164917484FF4C472FCF784FECA
:10BF200001230193019B002BFCD17CB101232570DF
:10BF3000C4F801606371224603210F48FFF748FAF5
:10BF4000002806DAA4F1140009F072FA4FF0FF306D
:10BF50000AE065791DB10120FEF7D6FDF9E7A4F1ED
:10BF6000140009F065FA284602B070BD7ED80108B9
:10BF700029D80108DDD50108181F001038B504467E
:10BF8000FEF714FAA268002A10DD2368E118013ACE
:10BF90000D7BA260591C084B0B40002BBEBF03F168
:10BFA000FF3363F0FF030133236001E04FF0FF35FF
:10BFB000FEF70EFA284638BDFF00008038B504466B
:10BFC0000D46FEF7F3F9A268FF2A11DC6368E0185A
:10BFD000591C0A4B05730B40002BBEBF03F1FF3306
:10BFE00063F0FF03013301326360A260002401E0CB
:10BFF0004FF0FF34FEF7ECF9204638BDFF0000801B
:10C000002DE9F8435026DFF834900D4601EB020885
:10C010000C4646434445A4EB05070BD009EB060349
:10C02000586900F58670FFF7A9FF002802DB04F8C5
:10C03000010BEFE73846BDE8F88300BF3820001059
:10C040002DE9F843134F0E4680461546FEF7AEF92C
:10C0500050233544344603FB0877AC42C6EB040951
:10C0600006D014F8011B7869FFF7A8FF0028F4DA5E
:10C07000FEF7AEF90748502303FB0800012243698D
:10C0800040F22771D3F8180205F03EF84846BDE8A3
:10C09000F88300BF382000102DE9F84F03F1080A9B
:10C0A000814650468B4690461D460A9F0B9EFCF7E4
:10C0B0003AFCA8F1040152465944044610F0C0FF6E
:10C0C0001048DFF844E036BA3FBA0022291D8A4200
:10C0D0000EDCA358834204EB020C04D0734505D157
:10C0E000CCF8006000E0A7500432F0E70132EEE740
:10C0F0002A46211D484610F0A3FF2046BDE8F84F10
:10C10000FCF722BCABCDEF01ABCDEF022DE9F74F31
:10C11000847FC37F80464FF480708946924643EA0D
:10C120000424FCF700FC002506462F46002C18DDF1
:10C13000B4F5807FA3463A46A8BF4FF4807B4FF406
:10C140008073414630468DE80006FFF7A5FF28467C
:10C150005A463146F4F7BEF85F44CBEB040405467B
:10C16000E4E73046FCF7F0FB28BA03B0BDE8F08FF7
:10C1700010B5012008F002FF044650B100F114028E
:10C1800002210648FFF724F9002805DA204609F0C5
:10C190004FF94FF0FF3010BD002010BD581F0010A8
:10C1A00007B5002301938DF804008DF80510019A5E
:10C1B00003481946FFF70CF9C01703B05DF804FBFC
:10C1C000581F00102DE9F3410E461749502303FB79
:10C1D00000130746D3F81080154600244DB14046A1
:10C1E000FFF7CCFE0028A2BF307001340136013DBC
:10C1F000F4E7D8F80830002B12DD0222012138467E
:10C20000FFF73EFE00280BDA084B094909484FF4B6
:10C21000DF72FCF709FD01230193019B002BFCD188
:10C22000204602B0BDE8F081382000102CD9030868
:10C23000D4D80108DDD50108F8B5064609200F4617
:10C24000154608F09BFE044678B147618561067784
:10C2500000F1140201210648FFF7BAF8002805DAB8
:10C26000204609F0E5F8002500E005462846F8BD1F
:10C27000581F001007B50120FEF759FF0B4B18603F
:10C2800030B10B480063FFF7F7F803B05DF804FB2B
:10C29000084B094909484FF4E672FCF7C5FC012335
:10C2A0000193019B002BFCD1EBE700BFDC2C0010BD
:10C2B000581F001070D90308E3D80108DDD5010824
:10C2C00037B5054660B10F4C00234FF0FF321946D9
:10C2D0002068FEF7A5FF01280FD04FF0FF300EE0D9
:10C2E000094B0A490A4840F2D512FCF79DFC01238C
:10C2F0000193019B002BFCD1E5E76560002003B0B2
:10C3000030BD00BFDC2C001092D90308F1D8010821
:10C31000DDD501080548436833B1002343601A4660
:10C3200019460068FEF779BE704700BFDC2C00108C
:10C330002DE9F04F6A4CDFF8D0818FB000252746F9
:10C34000C1463B2303FB05731B68002B4ED101350F
:10C35000022D04F13B04F4D10FB0BDE8F08F20466C
:10C36000FFF7AEFF07F01BFA4FF6FF739842064641
:10C37000AAF8380076D010F02F0A40D13B2303FBF7
:10C3800005731E8F06F4C076A6F5C0735E425E414B
:10C39000FFF7C0FF002EDAD02046FFF791FF0EAA6C
:10C3A00000260DF1180A02F8296D514605A80596D8
:10C3B00006F01EFF8346FFF7ADFFBBF1000F15D05F
:10C3C000059933464FF0500C0CFB0382DEB2106926
:10C3D000002849D10133092BF6D1082E56D1414B03
:10C3E0001B6C002B02DD4048FCF71EFC4FF03B0AA3
:10C3F0000AFB057ADAF80030002BB0D1A7E7030773
:10C4000006D5384B1B6C012B02DD3848FCF70CFCC1
:10C4100070070CD5334B1B6C012B08DD3B2303FB52
:10C4200005733348198FC1F34221FCF7FDFBB107B7
:10C430000BD52C4B1B6C012B02DD2E48FCF7F4FBBB
:10C4400094F83A30013384F83A30F20706D5254B98
:10C450001B6C012B02DD2848FCF7E6FB504606F07A
:10C46000A5FE8BE7002693E7D0F80CE1BEF1000FA4
:10C47000B0D07445AED1D0F815018842AAD19DF84C
:10C480000F3023B1936C0133936400E00026BBF1BD
:10C49000000FABD0502303FB06931A6900231AF850
:10C4A0000310019310460092FFF788FD019B009A4C
:10C4B00001335B45F3D1022201213046FFF7E0FC56
:10C4C000002893DA0D4B0E490E484FF4CA72FCF760
:10C4D000ABFB01230493049B002BFCD186E700BF38
:10C4E000B83200100010001096D9030809DA0308CA
:10C4F0001DDA03083CDA030857DA0308CBD903082E
:10C50000FBD80108DDD501083820001010B50A4A13
:10C51000012392F86940844204D192F86A408C4227
:10C5200008D039B10133DBB2092B02F15002F0D14E
:10C530000A2010BD184610BD38200010F0B5C0F319
:10C54000072285B0022A03906ED0032A00F0B28041
:10C55000012A40F00581834A9DF80C50502303FBCB
:10C56000052316461C69002C00F0FA801A7E012A69
:10C5700093F8202052D1002A00F0F280002083F8A6
:10C58000212083F82000FCF75DFD774B1B6C012B0D
:10C5900008DDD4F81D31D4F81921D4F815117348E9
:10C5A000FCF742FB00212846FFF7A4FC002384F897
:10C5B000153184F8163184F8173184F8183184F86D
:10C5C000193184F81A3184F81B3184F81C3184F84D
:10C5D0001D3184F81E3184F81F3184F8203184F82D
:10C5E0000C3184F80D3184F80E3184F80F3184F861
:10C5F000213184F822315E4B5A5D502303FB0263E4
:10C6000093F8200028B96A1E52104FF0FF3109F04C
:10C61000C9FBD4F815210321D2B22EE0032A40F041
:10C620009F8083F8212030E09DF80C504D49502325
:10C6300003FB05131C69002C00F09280197E93F80F
:10C64000200001291DD1012840F08A8083F82100B3
:10C6500083F82020FCF7F6FC434B1B6C012B08DD14
:10C66000D4F81D31D4F81921D4F815114148FCF73C
:10C67000DBFAD4F815210221D2B22846FDF7AEFC30
:10C680006EE003286CD183F82100002083F820009D
:10C69000FCF7D8FC344B1B6C012B61DDD4F81D3149
:10C6A000D4F81921D4F81511334805B0BDE8F0408D
:10C6B000FCF7BABA2B4C9DF80C50502303FB0543F2
:10C6C00027461E693EB11C7E012C04D193F8203010
:10C6D000022B45D106E0502303FB057393F820306D
:10C6E00093B33DE0204B1B6C012B0CDDD6F81D11E4
:10C6F000D6F81931D6F8152100912049204851F873
:10C700002510FCF791FA2346502202FB057494F899
:10C71000202084F8212084F82030FEF7FFF82063E1
:10C720000220FCF78FFCD6F815210121D2B2284651
:10C73000FDF754FC607E09F05BFB002810DB05B0C0
:10C74000BDE8F04009F022BD074B1B6C012B05DD55
:10C750000A4B0C4853F82510FCF766FA0323D3E77D
:10C7600005B0F0BD382000100010001070DA03088A
:10C7700030E40308D0DA03089DDA030848230010E8
:10C7800006DB030847DB03082DE9F04FA1B0804624
:10C79000FFF796FD07F003F800F4807085B2002DD6
:10C7A00000F0B98006F0FBFF030403D40120FEF77C
:10C7B000ABF9F7E706A806F0CBFD069BC3F30B2306
:10C7C00003EB830303EB8303C8F830309DF81A3082
:10C7D000FA221B09534303F5FA630027C8F83430E3
:10C7E0003D469DF81830B7EB131F80F294803B0153
:10C7F00004933A0120AB134453F85BAC4FEA1A237D
:10C8000004939DF810B05FFA8AF421465846FFF76A
:10C810007DFE5D4A0A2814BF06462646502303FBC8
:10C820000623D3F81C90B9F1000F07DA584609F037
:10C83000DFFAB0F10009B8BFCAF30049013C072C88
:10C8400067D80123B340504A1D43502303FB0623FE
:10C850001C6993F820300BB1032B53D14A4AC4F81A
:10C860000C81502303FB0623059393F8202083F8C3
:10C870002120022283F82020FEF750F8059BD86281
:10C880000120FCF7DFFB20AB3A019A18683AD2F896
:10C890000510C4F81511D2F80920059BC4F8192118
:10C8A0009DF81020C4F81DA15A76384B1B6C012B43
:10C8B00014DDD4F80C11D4F81D010B6ACA69039079
:10C8C000D4F819010290D4F815010190496A009139
:10C8D0002F49304851F82610FCF7A6F9D4F8152155
:10C8E0000021D2B23046FDF779FB01213046FFF737
:10C8F00001FB721E48465210594609F053FA304661
:10C90000FDF768F93B0120AA134433F8573CA4F81B
:10C910002131013765E71C4E1C4FDFF8749000246D
:10C92000337E012B5FFA84FA23D1A3402B4220D11E
:10C930003169D1F80C3198451BD196F82030C3B13C
:10C940003B6C012B0BDDD1F81931D1F81521D1F851
:10C950001D11009159F824100F48FCF765F90023C8
:10C96000069301238DF818A08DF819300698FFF76B
:10C97000E5FD0134092C06F15006D1D1FFF7CAFCC0
:10C98000002021B0BDE8F08F38200010001000100A
:10C990004823001075DB0308C0DB030810B5094C01
:10C9A000022001F04FFB236813B12046FFF7ECFE95
:10C9B000D4F83B3013B10448FFF7E6FEBDE8104061
:10C9C000FFF7B6BCB8320010F33200102DE9F04F7B
:10C9D000514D037A502202FB035387B0D3F810A0C5
:10C9E00004464FF064080026DAF80C31002B73D0AF
:10C9F0001B68002B70D06368277A0193502303FBD8
:10CA00000753D4F800B093F820901E6919F1FF3352
:10CA100018BF012303939BF8003006F21512552B23
:10CA2000029211D0D6F80C01FFF74AFC5A46039B3C
:10CA3000BDF80410029806F011FC8346FFF76AFC6B
:10CA4000B9F1010F15D11EE0B9F1020FEAD11EB103
:10CA5000D6F80C31002BE5D1304B3149314840F24A
:10CA60005D32FCF7E1F801230593059B002BFCD117
:10CA7000D8E7BBF1000F06DB502303FB0755EB6C37
:10CA80000133EB642CE0BBF1FF3F05D1D6F80C215C
:10CA9000936A0133936207E01BF1020F04D1D6F8C9
:10CAA0000C21D36A0133D362BBF1000F4FEADB766E
:10CAB00012DAB8F101080AD1DAF80C01FFF764FEC6
:10CAC000237A502202FB03535A6C01325A64FFF757
:10CAD0002FFC0120FEF718F816B1B8F1000F83D132
:10CAE00001221146207AFFF7CBF9002806DBA4F1DA
:10CAF000140008F09DFC07B0BDE8F08F0A4B0B490D
:10CB000008484FF4BF72FCF78FF801230493049B8D
:10CB1000002BFCD1EBE700BF38200010F2DB03084C
:10CB20000AD90108DDD5010810DC030814D9010871
:10CB3000044B5B6823B100221989586803F09CBE3E
:10CB4000704700BFDC2C0010034B586818B1818A75
:10CB5000006900F0E0BB7047DC2C0010034B5B6801
:10CB6000014613B1186800F085BB7047DC2C00103B
:10CB700070470000034B586810B1006800F0BEBB5E
:10CB8000704700BFDC2C0010044B5B6823B101220E
:10CB90001989586803F070BE704700BFDC2C001084
:10CBA0002DE9F04F8FB0012200254FF4FA73039561
:10CBB0000293019200924FF0FF312846DFF83CB318
:10CBC00000F030FA5E46C24B3B2000FB0530FFF719
:10CBD00077FBFFF7D9FFDBF84030012B03DD294657
:10CBE000BC48FCF721F8F769336ABB4C1B0205937C
:10CBF000336A012D08BF47F00207EC2B19DBEE2B3F
:10CC000002DDFF2B0BD014E0B44B01221A60DBF8DD
:10CC100044303BB101224FF0FF31002006E0237881
:10CC2000042B09D101224FF0FF31022009F082F9D3
:10CC300002E02378042BEDD02378012B16D00AD301
:10CC4000022B20D1A64A012347F0010782F86B305E
:10CC500082F8BB3018E0A248002301211A18503393
:10CC6000B3F5207F82F86B10F8D10CE09C4847F0B8
:10CC70000107002211185032B2F5207F81F86B3085
:10CC8000F8D1012300E00023964C05EB4303DB03BE
:10CC9000E2184B341C44394692F869A092F86A9025
:10CCA000059A2046FFF732FA804606F08DFE06F020
:10CCB00009FD48F22003984254D10EA9002341F8FF
:10CCC0001C3D49EA0A2006F047FD012006F058FE07
:10CCD0004FF4967006F03CFE06F0A2FE079B9845C6
:10CCE000336C67D0002B02DD7F48FBF79DFF059A70
:10CCF00094F81E9094F81F8039462046FFF706FAF4
:10CD000006F062FE06F0DEFC48F22003984256D19F
:10CD100006F0E8FC022805D10A20FDF7F5FE06F032
:10CD20003EFDF7E748F20303984248D14FF4806094
:10CD3000FBF7F9FD48EA092982464FF00008059BF8
:10CD4000019300974FF48063424621465046FFF717
:10CD5000A3F9C14510D85046FBF7F6FD0BA948468C
:10CD600006F0FAFC012006F00BFE4FF4967006F078
:10CD7000EFFD06F055FE22E04FF4C04006F0CBFD7B
:10CD800051464FF4806006F037FDA8F5004189B2A6
:10CD90004FF4C04006F0B6FC48F20B03984203D0B3
:10CDA0005046FBF7D1FD0AE008F58068B8F5004F62
:10CDB000C5D1D0E7012B02DD4C48FBF735FF736B83
:10CDC000980703D4DBF83430990702D506F0FCFD50
:10CDD00052E006F0A9FA00284ED106F0E0FC020469
:10CDE00003D40120FDF790FEF7E70BA806F0C0F989
:10CDF0000B9B013B03333FD8FF2006F0D7F90120FE
