:020000040800F2
:10000000001000109501000889010008890100080E
:100010008901000889010008890100088901000898
:100020008901000889010008890100088901000888
:100030008901000889010008890100088901000878
:100040008901000889010008890100088901000868
:100050008901000889010008890100088901000858
:100060008901000889010008890100088901000848
:100070008901000889010008890100088901000838
:100080008901000889010008890100088901000828
:100090008901000889010008890100088901000818
:1000A0008901000889010008890100088901000808
:1000B00089010008890100088901000889010008F8
:1000C00089010008890100088901000889010008E8
:1000D00089010008890100088901000889010008D8
:1000E00089010008890100088901000889010008C8
:1000F00089010008890100088901000889010008B8
:1001000089010008890100088901000889010008A7
:100110008901000889010008890100088901000897
:100120008901000889010008890100088901000887
:100130008901000889010008890100088901000877
:100140008901000889010008890100088901000867
:100150008901000889010008890100088901000857
:100160008901000889010008890100088901000847
:100170008901000889010008890100088901000837
:100180008901000889010008684620F007018D46B2
:1001900001B4FEE700F03CF8064B074A9A60064BB4
:1001A0001B681C4684F30888034B5B681C46A04709
:1001B000FEE700BF00ED00E000800008044A0548AB
:1001C0000023195C99540133B3F5007FF9D17047CE
:1001D0000010001000400008F8B5F22000F09CFB71
:1001E00000F08CFB02210820074D084F00F0DAFBDD
:1001F0000024A5F50076A019854204D9395900F0EC
:1002000025FC0434F7E7F8BD004200080010001098
:10021000F8B5234CFFF7D2FF2368002B3EDD2268A0
:100220002049002000F042F86368834236D1F22072
:1002300000F072FB00F062FB0221082000F0B2FB2C
:100240000221102000F0AEFB0221182000F0AAFBD2
:100250000221202000F0A6FB0221282000F0A2FBB2
:100260000221302000F09EFB0221382000F09AFB92
:1002700023680D4E0B4FA3F57F5300253D3B04240F
:1002800093FBF4F4AB00A54203EB060006D003F5A4
:1002900080430135F95800F0D9FBF3E7F8BD00BF02
:1002A00000100010000008080040000810B5084CBD
:1002B000C0430A44914208D011F8013B4340DBB2ED
:1002C00054F8233083EA1020F4E7C04310BD00BF88
:1002D000FC02000810B5084C0A4491420AD011F8FB
:1002E000013B4340DBB204EB4303B3F8003483EA41
:1002F0001020F2E710BD00BFFC0200080000000063
:10030000963007772C610EEEBA51099919C46D0722
:100310008FF46A7035A563E9A395649E3288DB0E7D
:10032000A4B8DC791EE9D5E088D9D2972B4CB60960
:10033000BD7CB17E072DB8E7911DBF906410B71D3D
:10034000F220B06A4871B9F3DE41BE847DD4DA1A76
:10035000EBE4DD6D51B5D4F4C785D38356986C13A7
:10036000C0A86B647AF962FDECC9658A4F5C011420
:10037000D96C0663633D0FFAF50D088DC8206E3BFE
:100380005E10694CE44160D5727167A2D1E4033C10
:1003900047D4044BFD850DD26BB50AA5FAA8B53537
:1003A0006C98B242D6C9BBDB40F9BCACE36CD83226
:1003B000755CDF45CF0DD6DC593DD1ABAC30D926CD
:1003C0003A00DE518051D7C81661D0BFB5F4B421D0
:1003D00023C4B3569995BACF0FA5BDB89EB80228CD
:1003E0000888055FB2D90CC624E90BB1877C6F2F52
:1003F000114C6858AB1D61C13D2D66B69041DC764D
:100400000671DB01BC20D2982A10D5EF8985B17125
:100410001FB5B606A5E4BF9F33D4B8E8A2C90778D4
:1004200034F9000F8EA8099618980EE1BB0D6A7F6B
:100430002D3D6D08976C6491015C63E6F4516B6B24
:1004400062616C1CD83065854E0062F2ED95066CD9
:100450007BA5011BC1F4088257C40FF5C6D9B0654E
:1004600050E9B712EAB8BE8B7C88B9FCDF1DDD62AB
:10047000492DDA15F37CD38C654CD4FB5861B24D11
:10048000CE51B53A7400BCA3E230BBD441A5DF4ADB
:10049000D795D83D6DC4D1A4FBF4D6D36AE969439E
:1004A000FCD96E34468867ADD0B860DA732D044449
:1004B000E51D03335F4C0AAAC97C0DDD3C71055074
:1004C000AA41022710100BBE86200CC925B568571B
:1004D000B3856F2009D466B99FE461CE0EF9DE5E64
:1004E00098C9D9292298D0B0B4A8D7C7173DB35915
:1004F000810DB42E3B5CBDB7AD6CBAC02083B8EDA6
:10050000B6B3BF9A0CE2B6039AD2B1743947D5EAB2
:10051000AF77D29D1526DB048316DC73120B63E3E1
:10052000843B64943E6A6D0DA85A6A7A0BCF0EE440
:100530009DFF099327AE000AB19E077D44930FF0FB
:10054000D2A3088768F2011EFEC206695D5762F7F2
:10055000CB67658071366C19E7066B6E761BD4FE2F
:10056000E02BD3895A7ADA10CC4ADD676FDFB9F90C
:10057000F9EFBE8E43BEB717D58EB060E8A3D6D6CE
:100580007E93D1A1C4C2D83852F2DF4FF167BBD1FC
:100590006757BCA6DD06B53F4B36B248DA2B0DD8FF
:1005A0004C1B0AAFF64A0336607A0441C3EF60DFA2
:1005B00055DF67A8EF8E6E3179BE69468CB361CB8B
:1005C0001A8366BCA0D26F2536E2685295770CCCB0
:1005D00003470BBBB91602222F260555BE3BBAC5F1
:1005E000280BBDB2925AB42B046AB35CA7FFD7C2E2
:1005F00031CFD0B58B9ED92C1DAEDE5BB0C2649BD3
:1006000026F263EC9CA36A750A936D02A906099C05
:100610003F360EEB8567077213570005824ABF9578
:10062000147AB8E2AE2BB17B381BB60C9B8ED292FB
:100630000DBED5E5B7EFDC7C21DFDB0BD4D2D38652
:1006400042E2D4F1F8B3DD686E83DA1FCD16BE81C5
:100650005B26B9F6E177B06F7747B718E65A088896
:10066000706A0FFFCA3B06665C0B0111FF9E658F27
:1006700069AE62F8D3FF6B6145CF6C1678E20AA0D1
:10068000EED20DD75483044EC2B30339612667A757
:10069000F71660D04D476949DB776E3E4A6AD1AEA6
:1006A000DC5AD6D9660BDF40F03BD83753AEBCA935
:1006B000C59EBBDE7FCFB247E9FFB5301CF2BDBDA2
:1006C0008AC2BACA3093B353A6A3B4240536D0BAAB
:1006D0009306D7CD2957DE54BF67D9232E7A66B348
:1006E000B84A61C4021B685D942B6F2A37BE0BB4F5
:1006F000A18E0CC31BDF055A8DEF022D0000C1C077
:1007000081C1400101C3C003800241C201C6C006CD
:10071000800741C70005C1C581C4400401CCC00C9D
:10072000800D41CD000FC1CF81CE400E000AC1CA5D
:1007300081CB400B01C9C009800841C801D8C0184D
:10074000801941D9001BC1DB81DA401A001EC1DECD
:1007500081DF401F01DDC01D801C41DC0014C1D4BD
:1007600081D5401501D7C017801641D601D2C012DD
:10077000801341D30011C1D181D0401001F0C030AD
:10078000803141F10033C1F381F240320036C1F6CD
:1007900081F7403701F5C035803441F4003CC1FC9D
:1007A00081FD403D01FFC03F803E41FE01FAC03A5D
:1007B000803B41FB0039C1F981F840380028C1E88D
:1007C00081E9402901EBC02B802A41EA01EEC02ECD
:1007D000802F41EF002DC1ED81EC402C01E4C024BD
:1007E000802541E50027C1E781E640260022C1E2DD
:1007F00081E3402301E1C021802041E001A0C060ED
:10080000806141A10063C1A381A240620066C1A6CC
:1008100081A7406701A5C065806441A4006CC1AC9C
:1008200081AD406D01AFC06F806E41AE01AAC06A5C
:10083000806B41AB0069C1A981A840680078C1B84C
:1008400081B9407901BBC07B807A41BA01BEC07ECC
:10085000807F41BF007DC1BD81BC407C01B4C074BC
:10086000807541B50077C1B781B640760072C1B2DC
:1008700081B3407301B1C071807041B00050C1902C
:10088000819140510193C053805241920196C056CC
:10089000805741970055C19581944054019CC05C9C
:1008A000805D419D005FC19F819E405E005AC19A5C
:1008B000819B405B0199C059805841980188C0488C
:1008C00080494189004BC18B818A404A004EC18ECC
:1008D000818F404F018DC04D804C418C0044C184BC
:1008E000818540450187C047804641860182C042DC
:1008F000804341830041C18181804040044B1A699B
:10090000002ABFBF034A5A6002F188325A6070471A
:10091000003C02402301674520F4F97323F00103F2
:1009200082B023B918B1054BD86002B070470123DB
:100930000193019B002BFCD1F5E700BF003C024076
:100940000E4BDA68D20310D4DA68D1060FD4DA6815
:10095000D2050ED4DA6812F0EF0F0CD1DB6813F079
:10096000020F14BF0820092070470120704706209D
:100970007047022070470720704700BF003C0240CC
:1009800007B509238DF80730FFF7DAFF8DF8070068
:100990009DF80730012BF7D09DF8070003B05DF8F4
:1009A00004FB000030F0180373B5064604D1032998
:1009B00016D9012301930FE0202BF8D0402BF6D05D
:1009C000802BF4D0A02BF2D0C02BF0D001230093C9
:1009D000009B002BFCD1EAE7019B002BFCD102E03D
:1009E00059B1012906D0022914BF4FF440754FF4C4
:1009F000007503E04FF4807500E00D46FFF7C0FF7F
:100A000009281ED1104C236923F440732361216906
:100A100029432161236923F0F8032361236943F00B
:100A200002031E432661236943F480332361FFF7E9
:100A3000A7FF236923F002032361236923F0F8034E
:100A4000236102B070BD00BF003C0240184B00F1B2
:100A500078429A4273B505460E4618D8FFF790FFC4
:100A6000092822D1134C236923F44073236123699D
:100A700043F400732361236943F0010323612E6073
:100A8000FFF77EFF236923F0010323610DE000F1EE
:100A9000604303F5084340F20E229342DED901235E
:100AA0000193019B002BFCD1D8E702B070BD00BFC1
:080AB000FEFF0F00003C0240B4
:1040000000EFCDAB01EFCDAB02EFCDAB03EFCDAB0E
:1040100004EFCDAB05EFCDAB06EFCDAB07EFCDABEE
:1040200008EFCDAB09EFCDAB0AEFCDAB0BEFCDABCE
:104030000CEFCDAB0DEFCDAB0EEFCDAB0FEFCDABAE
:1040400010EFCDAB11EFCDAB12EFCDAB13EFCDAB8E
:1040500014EFCDAB15EFCDAB16EFCDAB17EFCDAB6E
:1040600018EFCDAB19EFCDAB1AEFCDAB1BEFCDAB4E
:104070001CEFCDAB1DEFCDAB1EEFCDAB1FEFCDAB2E
:1040800020EFCDAB21EFCDAB22EFCDAB23EFCDAB0E
:1040900024EFCDAB25EFCDAB26EFCDAB27EFCDABEE
:1040A00028EFCDAB29EFCDAB2AEFCDAB2BEFCDABCE
:1040B0002CEFCDAB2DEFCDAB2EEFCDAB2FEFCDABAE
:1040C00030EFCDAB31EFCDAB32EFCDAB33EFCDAB8E
:1040D00034EFCDAB35EFCDAB36EFCDAB37EFCDAB6E
:1040E00038EFCDAB39EFCDAB000000000000000091
:1040F00000000000000000000000000000000000C0
:1041000000000000000000000000000000000000AF
:10411000000000000000000000000000000000009F
:10412000000000000000000000000000000000008F
:10413000000000000000000000000000000000007F
:10414000000000000000000000000000000000006F
:10415000000000000000000000000000000000005F
:10416000000000000000000000000000000000004F
:10417000000000000000000000000000000000003F
:10418000000000000000000000000000000000002F
:10419000000000000000000000000000000000001F
:1041A000000000000000000000000000000000000F
:1041B00000000000000000000000000000000000FF
:1041C00000000000000000000000000000000000EF
:1041D00000000000000000000000000000000000DF
:1041E00000000000000000000000000000000000CF
:1041F00000000000000000000000000000000000BF
:1080000000100010E58100089982000849840008EA
:108010009982000899820008998200085982000814
:10802000598200085982000859820008C9A0000836
:1080300099820008598200086DA100083183000868
:1080400059820008598200085982000859820008A4
:108050005982000859820008598200085982000894
:108060005982000859820008598200085982000884
:108070005982000859820008598200085982000874
:108080005982000859820008598200085982000864
:108090005982000859820008598200085982000854
:1080A0005982000859820008598200085982000844
:1080B0005982000859820008598200085982000834
:1080C0005982000859820008598200085982000824
:1080D0005982000859820008598200085982000814
:1080E0005982000859820008598200085982000804
:1080F00059820008598200085982000859820008F4
:1081000059820008598200085982000859820008E3
:1081100059820008598200085982000859820008D3
:1081200059820008598200085982000859820008C3
:1081300059820008598200085982000859820008B3
:1081400059820008598200085982000859820008A3
:108150005982000859820008598200085982000893
:108160005982000859820008598200085982000883
:108170005982000859820008598200085982000873
:108180005982000859820008F8B500BFF8BC08BC45
:108190009E467047F8B500BFF8BC08BC9E467047C5
:1081A00008B507F041FD00F011FB04F0B9FE05F041
:1081B000DBF903F0BDFF03F08BF803F0E7FC06F0FA
:1081C000E7FDBDE8084000F0C1B908B54FF44070C4
:1081D00008F0BAFD08F06AFD06F05EFE02F030FA23
:1081E000FEE70000124A1349D36843F08073D3605E
:1081F000114A124B8B4204D252F8040F43F8040B7D
:10820000F8E70F49002303F108028818B2F5447F0C
:10821000585013460B4AF6D10023C2F89034194641
:1082200042F823100133622BFAD1FFF7CEBF00BF13
:10823000F0ED00E023AF012090E50108D0A101207E
:108240008881012000800120024B1868003018BF8F
:108250000120704708AC0120684620F007018D46D8
:1082600031B50B4D2B6801332B6000F07BF8094BC7
:1082700053F8204024B1636898472468002CFAD151
:108280002B68013B2B60BDE831408546704700BF3D
:1082900008AC012000800120684620F007018D46CF
:1082A00001B5BDE8014085467047000038B5044679
:1082B0000D4601F03FFF194A13685BB901F04CFF0E
:1082C000174B1B6D002B22DB164800F04BFA4FF0CA
:1082D000FF3038BD04F1100061280BDD01F03CFFD8
:1082E0000F4B1B6D002B15DB0F4800F03BFA6FF0B6
:1082F000010038BD196811600C4A52F8201019604D
:1083000042F820305D6001F027FF002038BD4FF0BB
:10831000FF3038BD6FF0010038BD00BFD0A1012093
:10832000001000101C470108384701080080012098
:10833000684620F007018D4631B50849084AD1E961
:108340000045002312196B41C1E90023C1E9022352
:1083500001F02AFFBDE831408546704710AC01208E
:1083600040420F00EFF30580704782B00123019374
:10837000019B002BFCD102B07047000007B5074BF2
:108380001B6D002B02DB064800F0ECF90123019382
:10839000019B002BFCD103B05DF804FB0010001022
:1083A000BF47010880B586B002AF78606B46FB60BE
:1083B000204B1B6D002B02DB1F4800F0D3F91D4B37
:1083C0001B6D002B0FDB7B6819687B6804331A6810
:1083D0007B68083318687B680C331B68009303467E
:1083E000164800F0BFF9134B1B6D002B10DB7B68A8
:1083F000103319687B6814331A687B68183318685F
:108400007B681C331B68009303460D4800F0AAF9F3
:10841000084B1B6D002B03DBF9680A4800F0A2F93A
:108420000123BB6000BFBB68002BFCD100BF10372D
:10843000BD4680BD00100010544701086447010884
:108440008C470108B44701081EF0040F0CBFEFF37E
:108450000880EFF309808169004A1047A58300086E
:1084600000BF38B50546FFF7EFFE044608B901F036
:1084700061FE284601F050FF05460CB901F06CFE84
:10848000284638BD38B50546FFF7DEFE044608B974
:1084900001F050FE284601F0ABFF1CB9BDE83840A2
:1084A00001F05ABE38BD000010B501F043FE094C82
:1084B00063693BB101F050FE012002F0E9F901F0DF
:1084C00039FEF5E7034B01225A61BDE8104001F087
:1084D00043BE00BF10AC012008B501F02BFE034BDA
:1084E00000225A61BDE8084001F036BE10AC012000
:1084F00010B504468021054809F02AF90028F9D072
:1085000021460248BDE8104009F022B80050004062
:1085100010B50446FFF7C8FF2046FFF7E9FF0A2C15
:1085200002BF034B01221A74BDE81040FFF7D4BF0D
:1085300010AC012010B5044C23681BB1012002F0DF
:10854000A7F9F9E710BD00BFD4A10120014B00221B
:108550001A607047D4A1012010B50446012002F032
:10856000AAFC024B1860024B1C6010BD28AC012015
:10857000C8AD01200A2810B5044602D10D20FFF72E
:10858000F9FF074A53681BB1591C51601C7010BD9C
:10859000044B1B681BB12046BDE81040184710BDB6
:1085A00028AC0120C8AD012010B5441E14F8010FFD
:1085B00010B1FFF7DFFFF9E710BD2DE9FF470246D5
:1085C0000D461078002800F0C980252801D0571CDE
:1085D0006BE05378302B03D1D71C9378012607E04A
:1085E0002D2B0DBF9378971C0026D71C08BF0226A1
:1085F0004FF000080A21A3F13002092A06D801FB36
:108600000838A8F1300817F8013BF4E703F0DF025F
:108610004C2A02BF3B7846F004060137002B00F0DD
:108620009D80602B86BFA3F12002D2B21A464F2A4A
:1086300012D006D8432A30D0442A3CD0422A38D01F
:1086400032E0552A37D0582A2CD0532A2CD1D5F8CD
:1086500000902C1D4B4601E008202DE0C9EB0305DE
:1086600013F8012B002AF9D1B00709D4454505F1CB
:10867000010604D22020FFF77DFF3546F6E7354698
:108680004846FFF791FFA84502D825463A4698E7A5
:108690002020FFF76FFF0135F5E728782C1DFFF745
:1086A00069FFF2E7102007E01846FFF763FF2C464A
:1086B000EBE7022000E00A20442A296805F10404BF
:1086C00004D10029BCBF494246F00806782B14BFEC
:1086D0004FF0070C4FF0270C0022B1FBF0FE00FB1F
:1086E0001E15EBB2092D84BF6344DBB230337146F3
:1086F000551C0DF80230BEF1000F04D0102D01D032
:108700002A46EAE70F22310705D504AB1D442D2385
:1087100005F8103C951C16F0010F14BF4FF0300AFD
:108720004FF0200AB307A94609D4C14509F1010653
:1087300004D25046FFF71EFFB146F6E7B146013DB1
:108740001DF80500FFF716FF002DF8D1C8459CD98C
:108750002020FFF70FFF09F10109F7E704B0BDE89A
:10876000F08700000FB413B50C4C002364221946A7
:10877000206802F019FC01280AD105A9049801918A
:10878000FFF71BFF00231A461946206802F009FB79
:1087900002B0BDE8104004B0704700BF28AC012013
:1087A0000EB417B505A9084C51F8043B6060184693
:1087B0000191FFF702FF626800231370636003B04A
:1087C000BDE8104003B0704728AC0120704700009E
:1087D000084930B500224C2404FB02135D6825B122
:1087E0001D68A84201D1184630BD0132162AF3D1C6
:1087F000002030BDE4A1012021B108B948687047CC
:1088000048697047084670472DE9F04F0F4689B018
:1088100017F814A9804650460D4691461C46FFF7AE
:10882000D7FF064650B9A74B1B6D002B40F31C81A8
:1088300042465146A448FFF795FF15E101464046E0
:10884000FFF7DAFF48450EDD9E4B1B6D002B04DD64
:10885000424651469D48FFF785FF4A462946404615
:1088600000F0CEFD00E125F8149C01F01BFF336AF7
:1088700006EB88021844002345F80C0C45F8083C28
:10888000936A01339362736A002B40F0ED808D4B45
:10889000DA699946002A45D02B78B12B05D8B02B40
:1088A00009D2552B03D0A22B00E0CC2B07D1D9F84D
:1088B0001C20022A36DDD9F81C20012A32DDD9F825
:1088C0001C20032A03DD7F4AD2699A422AD1D9F8B3
:1088D0005030012B12DD01F0E5FE35F8143C019318
:1088E0007B4B7C4953F8283000937B4B2A78002C33
:1088F00018BF0B4601467948FFF734FF002435F8CE
:10890000143C9C42D9F8503007DA012B03DD295D75
:108910007348FFF727FF0134F1E7012B02DD7148AF
:10892000FFF720FFB8F1000F50D0B468012C24D11C
:10893000F068C0B2FFF74CFF834603906B1C5BF8F6
:1089400048AF05930024BAF1000F42D0DAF8103096
:108950000493039B05995A690AF11500013A0BF03B
:1089600045FD38B95146584604F04EFE504605F0D4
:10897000B9F80124DDF810A0E5E7012244BB08F1B5
:10898000FF31B3468A40D3435BF848AF0493BAF152
:10899000000F1ED0DAF810300393726929460AF1ED
:1089A00014000BF023FD70B9DAF80C20049B1A4078
:1089B000CAF80C203AB95146584604F025FE5046F4
:1089C00005F090F80124DDF80CA0E0E7012400E0B8
:1089D000144633698DF81F304CB3B468D6F840A004
:1089E000012C1ABFB4FA84F464090224BAF1000F0E
:1089F00006D00DF11F033A4631464046D0470446A3
:108A0000A10701D5B36823B1E20704D5B368012BF0
:108A100001D1F3682B70A30709D0384605F0A0F9FF
:108A20003B4635F8142C2946002003F0BFF8D9F84E
:108A30003830D80513D59DF81F3083B1B8F1000F39
:108A40000DD1A1070BD4384605F08AF93B4635F81D
:108A5000142C2946404603F0A9F88DF81F809DF894
:108A60001F90B9F1000F05D1384605F03BF809B069
:108A7000BDE8F08FB8F1000FF6D1A207F4D401F0F1
:108A800011FE336A45F8089C184445F80C0C394629
:108A900006F1480004F0B4FD384605F061F94C4693
:108AA0000126E30709D5384605F05AF93B4635F863
:108AB000142C2946304603F079F801366410F6B2DA
:108AC000EFD1D1E700100010F24701081A48010861
:108AD000D8AB0120E9470108ED47010845480108E6
:108AE000694801089C4A0108704700002DE9F84FC9
:108AF00000F092FC264E4FF00008B1464FF04C0AB1
:108B00000AFB08956B6843B908F10108B8F1160F24
:108B100006F14C06F4D1BDE8F88FAB68002BF3D119
:108B2000AC6C002CF0D0A768D4F810B001F0BAFDFE
:108B300087422BD2E368D80706D56B6C23B1314648
:108B400001209847074600E00227E368990705D50A
:108B50006B6C1BB13146022098470746E368ABB106
:108B6000214606F1480004F04FFDEB685BB157B1B8
:108B7000BA07214648BF237531F8142B234600203D
:108B800003F014F802E0204604F0ACFF5C46C8E7AE
:108B9000E4A10120704700000D4970B500234C246A
:108BA0000D4604FB031256686EB11268C22A05DC3A
:108BB000C12A08DA552A06D0A22A00E0CC2A1CBF16
:108BC00004FB035250620133162BEAD170BD00BF83
:108BD000E4A10120002814BF0220002070470000FB
:108BE000034B9B68002B14BF02200120704700BF7D
:108BF0000010001070B51446002840F0AA8006222C
:108C000022801870637D013B032B00F2A480DFE813
:108C100003F04D622C02514B1B6D012B02DD5048BD
:108C2000FFF7A0FD0120FFF7B7FFF220F7F774FE72
:108C3000F7F764FE0AF056FB02214020F7F7B2FE78
:108C40000AF050FB02214820F7F7ACFE0AF04AFB7D
:108C500002215020F7F7A6FE0AF044FB022158201B
:108C6000F7F7A0FE0AF03EFB5CE00020658E84F87A
:108C7000320084F83300202204F11401F7F72AFBB4
:108C8000854268D1238B374A04F11A05182404FB66
:108C9000032404F11806B44244D055F8041B2046BE
:108CA000F7F7D4FE092856D10434F4E72B4D2B6D89
:108CB000012B02DD2C48FFF755FDA2692949002050
:108CC000F7F7F4FAE369984245D1A3692B6068602D
:108CD000F7F782FA24E0214D2B6D012B02DD2348AA
:108CE000FFF740FDA2691F490020F7F7DFFAE369AB
:108CF000984230D100224FF400711D4808F04AF923
:108D000000224FF400611A4808F044F90A2001F0EB
:108D1000BFFD06F051FD0A2001F0BAFDAE6D0DE079
:108D200006F06CF8012070BDA1690E4806F06EFADD
:108D3000013E0028F4D0082006F052F8002EF3D1AE
:108D40002B6D012B02DD0B48FFF70CFD06F056F8EA
:108D500001E0002070BD022070BD00BF00100010B7
:108D60008E48010800000808AA480108BD4801080B
:108D700000000240D148010873B5202004F058FCDF
:108D80000446D0B125460126002325F8146B23752F
:108D9000104B9B7E403B2375204604F0E1FF2346A9
:108DA00022882946304602F001FF234622882946C0
:108DB000022002F0FBFE02B070BD074B07490848D5
:108DC00040F29B22FFF7CEFC01230193019B002B75
:108DD000FCD1D7E7BCAA0120F04801086F48010880
:108DE000F448010808B5E8B9D37D917D1B0443EA36
:108DF0000163117E43EA01230B490B63537D4B63EF
:108E0000537E13F0010FC3F3400314BF042200226A
:108E100043F0020313438B63F7F7DEF905F0EEFF2F
:108E2000012008BD002008BD0010001010B5044648
:108E300040B100F0BFFC01F035FC034B502202FBB7
:108E400004346062002010BDBCAA012038B51D4664
:108E5000044630B9054BD27D1A7000F00BFC10B9F6
:108E60002870012038BD204638BD00BF30AC01203D
:108E700038B51D46044618B900F0FCFB10B928703F
:108E8000012038BD204638BD08B558B100F0F2FBCE
:108E900038B1054BD3F8D40001F0FAFC012006F0FC
:108EA00077FE022008BD00BF0010001008B500F0DA
:108EB000E1FB38B1044BD3F8D40001F0E9FC012008
:108EC00006F066FE022008BD0010001070B51546C1
:108ED0001E46044658B900F0CDFB08B9307013E0C7
:108EE000687E90B1204606F053FE204670BD00F02B
:108EF000C1FB48B16B7E3BB1044BD3F8D40001F009
:108F0000C7FC012006F044FE012070BD00100010D7
:108F100070B51F4D14461E46937D2A6808B39342D0
:108F200003D1E27D6B689A4204D01A4BD3F8D0008B
:108F300001F0AEFC012006F02BFEA37D2B60E37D4B
:108F40006B6000F097FB00B3114B1B68092BD4BF7B
:108F50000023012303224FF0FF31012000F098FC91
:108F600013E0934203D1E27D6B689A4202D0002065
:108F700006F00EFE00F07EFB30B102220021A07D43
:108F800006F0E4FD002070BD3070012070BD00BF10
:108F9000D8A101200010001038B5044608B1022005
:108FA00038BD00F067FBA0B10B49012000F04CFC7C
:108FB0004FF0FF33054622461946204600F068FC74
:108FC000002DECDB054B1B6D012B02DD0448FFF788
:108FD000C9FB012038BD00BF0A490108001000107C
:108FE00016490108F7B514460646002840F09B8054
:108FF00001F058FB4D4DA86301F054FB95F8283063
:109000006862013385F82830E37D03F0100303F034
:10901000FF0013B10321304600E0022103F01EF8E7
:10902000237E8DF80730637E8DF80630A37E8DF8A1
:109030000530E37E8DF80430019B6B6301F032FB59
:10904000030E2376C0F307436376C0F30723A376AA
:10905000E076019000F00EFB354EE37DB8B103F0F1
:10906000040101F0FF0771B93249012000F0ECFB67
:109070004FF0FF3319463A46384600F009FCE37DCD
:1090800023F0040301E043F00403E37503E023F05D
:109090000403E375B36BB36B13F0040FE37D14BFEC
:1090A00043F0080323F00803E375234B5A78227733
:1090B0009A786277214A11685268E2771A7884F8C0
:1090C00020202A7EA177012A1F462AD1A57DB36BD5
:1090D000E27D1B4E1549003518BF012503F0010341
:1090E00005EB430302F0010006EB43030344096967
:1090F0005B7AD1F83F01834204D17868C2F3400221
:1091000082420ED0C1F83F31D1F80C0103F036F89D
:1091100003F048F9E37DBD60C3F340037B6003F0D7
:1091200057F8012000E0002003B0F0BDBCAA0120E8
:10913000001000102A49010830AC0120D8A10120FC
:109140006F48010810B501F0ADFA054B054C986069
:1091500001F0A8FA606701F0A5FAC4F8C40010BDD8
:10916000D8A10120BCAA012038B5134B134D9C682F
:1091700034B14FF0FF33AB6000F02AFB022038BD62
:1091800006F038FDFFF7F8FD4FF4967001F080FB14
:1091900000F0B4FB0A49022000F056FB2B68092BB3
:1091A000D4BF0023012322464FF0FF31012000F0FD
:1091B0006FFB012038BD00BF00100010D8A10120B6
:1091C0005549010870B51646002840D100F052FA02
:1091D0000446002867D1364B364D4FF0FF321A60F7
:1091E0005A602B6D012B05DDF37DB27D717D324818
:1091F000FFF7B8FA314BB27D5A70F27D9A7006F0E3
:10920000D5FC06F0D9FC00F073FA00284DD064209C
:1092100001F03EFB06F0D8FCC82001F039FB00F05D
:1092200031FA40B3D5F8C80001F032FB0121D5F87E
:10923000DC20084606F08AFC002803DC1D4B5B6935
:10924000DB0418D5FFF77EFFFFF796FD2EE0194BE4
:10925000174CD3F8CC0001F01BFB06F0CBFCFFF75A
:109260008BFD4FF4967001F013FB00F047FB28B91B
:109270004FF0FF33A36000F0ABFA16E01049022074
:1092800000F0E2FA002803DA4FF0FF33A3600CE0AD
:109290002368092BD4BF0023012300224FF0FF31A4
:1092A000012000F0F5FA012400E00224204670BD00
:1092B000D8A10120001000106C49010830AC012039
:1092C0009749010838B51D46044648B900F0D2F95F
:1092D00008B928700FE0204606F05AFC204638BD39
:1092E00000F0C8F938B1054BD3F8D40001F0D0FA3A
:1092F000012006F04DFC012038BD00BF0010001019
:1093000013B5202004F094F9044658B121460122F7
:1093100056232280022001F8143F234602F046FC27
:1093200002B010BD054B06490648EB22FFF71AFABA
:1093300001230193019B002BFCD1E7E7F0480108D2
:1093400080480108F448010870B5124B15469A6A26
:10935000012A04460E461BD09A6A22B19B6A4340FA
:1093600013F0F00F14D1202004F062F9B02106228E
:109370000346017502800848417E5975817E9975C2
:10938000DC751E765D7603F11401002002F00EFC00
:10939000002070BD00100010BCAA01202DE9F04192
:1093A000044615481E46836A012B0F4690461FD07F
:1093B000836A23B1806A604010F0F00F18D120203A
:1093C00004F036F90D4DB1230822028003756B7E3F
:1093D0004375AB7E8375069BC376C475077680F8AC
:1093E00019808676034600F11401002002F0DEFBAE
:1093F0000020BDE8F08100BF00100010BCAA0120D1
:109400007047000008B1FFF79DBE024B4FF0FF32DE
:109410009A607047D8A101202DE9F041224C234EDB
:1094200001F040F9A368984206D9FFF7A5FC01F0C6
:1094300039F9336A1844A0601D4DDFF870800124AB
:109440002F4601F02FF96B6F726AC01A904208DD47
:10945000204600F083F901F025F9D8F820301844AF
:1094600068670134E4B2032C05F15005E9D17C6A48
:109470000F4D01F017F9201A00286C6A03DA01F089
:1094800011F9001B02E001F00DF9201A736A9842ED
:1094900008DD01F007F9786202210020BDE8F04103
:1094A00002F0DCBDBDE8F081D8A101200010001061
:1094B000BCAA012070B51E4B1A7B824204461E4690
:1094C00034D01C4B4FF0FF3501281D605D600DD07E
:1094D0001BD3022829D11849012000F0B5F92B46E9
:1094E00000220121284600F0D3F91EE000F0C2F866
:1094F00028B100212B462246084600F0C9F90F4941
:10950000002000F0A1F991200DE000F0B3F828B19F
:1095100000212B460122084600F0BAF90849002034
:1095200000F092F9922000F093F8347370BD00BF00
:1095300030AC0120D8A10120A0490108BD49010893
:10954000D649010808B5044B1B6D012B02DD034809
:10955000FFF708F9002008BD00100010104A0108AC
:1095600008B5054B1B6D002B02DD0448FFF7FAF828
:109570004FF0FF3008BD00BF00100010194A01086D
:1095800008B5044B1B6D012B02DD0348FFF7EAF819
:10959000002008BD00100010334A010808B5044B34
:1095A0001B6D002B02DD0348FFF7DCF8012008BD2E
:1095B000001000103C4A010808B5064B1B6D012B3A
:1095C00002DD0548FFF7CEF80120FFF71BFF002062
:1095D00008BD00BF00100010594A0108F8B500F09E
:1095E000A9FD154D154B002600240027C3E900678F
:1095F0002C6000F0B1FD00F09DFD114BC3E9006748
:10960000104E346000F0A8FD64242B680BB1336861
:1096100033B914F1FF3404D3012001F039F9F4E730
:1096200044B9094B1B6D002B04DB0848BDE8F8402A
:10963000FFF798B8F8BD00BF38AE012040AE01205A
:1096400070AE012060AE012000100010624A0108D7
:109650007047000008B5064B5B699B0706D406F00F
:10966000D1FAC82001F014F906F0D0FAFEE700BFE5
:1096700000100010024B1878831E58425841704762
:1096800040AC012038B5164C164DFFF7A7FF236DEF
:10969000012B05DDD4F8B02029681348FFF762F8E4
:1096A000D4F8B02029680E4B8A4201DD012038BD74
:1096B0001A6D002A04DDD3F8B0200C48FFF752F8E9
:1096C000626912F00402F1D12B68002BA6BFC3F32C
:1096D0000721DAB21146B420FFF736FE002038BD6C
:1096E0000010001068AE0120804A01089E4A01085F
:1096F00038B5164C164DFFF771FF236D012B05DDB4
:10970000D4F8B42029681348FFF72CF8D4F8B42013
:1097100029680E4B8A4201DD012038BD1A6D002AEE
:1097200004DDD3F8B4200C48FFF71CF8626912F08E
:109730000802F1D12B68002BA6BFC3F30721DAB2D0
:109740001146B820FFF700FE002038BD00100010C1
:1097500048AE0120B94A0108D74A010808B5114BA3
:109760001B78022B1CD101280AD100221146A1200E
:10977000FFF7EAFD0C4B1B6D002B11DD0B480BE0D6
:1097800002280DD100221146A220FFF7DDFD064B75
:109790001B6D002B04DD0648BDE80840FEF7E2BF64
:1097A00008BD00BF40AC012000100010F24A0108C3
:1097B0001E4B0108012803D100221146A32004E01A
:1097C000022804D100221146A420FFF7BDBD704736
:1097D00008B50121002006F0E1F80020FFF712FE95
:1097E00006F010FAFFF78CFD642001F051F806F046
:1097F0000DFA4FF4FA7001F04BF806F00DFABDE8DF
:109800000840FFF73FBF000008B5054B1B6D012B5B
:1098100002DD0448FEF7A6FFFFF7DAFF002008BDCF
:1098200000100010484B010808B5054B1B6D012BBB
:1098300002DD0448FEF796FFFFF7CAFF002008BDCF
:1098400000100010514B0108F8B50D4C0D4A0546AB
:10985000207800EB40032B440F4652F82330294672
:109860009847061E0ADB00236360074B25701B6DBB
:10987000012B03DD39460548FEF774FF3046F8BD7D
:1098800040AC0120EC49010800100010594B0108C0
:1098900010B4144629B101294FF0000203D103216D
:1098A00002E0032200E0114601280AD1012B42F018
:1098B000140002D141F008011EE0EBB942F01C0097
:1098C0001AE0A8B9032C06D8DFE804F008020B1050
:1098D0000B2214210CE041F0040109E041F00401E5
:1098E00001E041F0140142F0080201E000221F21D2
:1098F000002010BC03F0B6BA0246F9E770B51F4C61
:109900001F4E204DFFF76AFE236D012B04DD3268E8
:1099100029681D48FEF726FF32682968C2EBC2009D
:10992000642690FBF6F0884207DC0D23534393FB3B
:10993000F6F3994201DC012070BD236D002B02DD9E
:109940001248FEF70FFF616911F00101F3D12A6897
:10995000002AAABFC2F307210A46D2B2B520FFF7F8
:10996000F3FC0B490120FFF76FFF4FF0FF33032299
:1099700019460020FFF78CFF002070BD001000107A
:1099800068AE012048AE0120A24B0108CB4B010874
:10999000214C01082DE9F043374D384AAE68EB6899
:1099A000374C0A369B1B934285B0AE6036D9D4F84B
:1099B000A8303344EB600023ADF80C30E36D002B8E
:1099C00011DBE16D2F4803AA02238DE80C00C9B218
:1099D000012305F0FDFB012805DDBDF80C302A4A06
:1099E0005BBA9BB2136000238DF80C308DF80D30FC
:1099F000236E002B12DB224B2248196E03AA02238E
:109A00008DE80C00C9B2012305F0E2FB012805DD59
:109A1000BDF80C301D4A5BBA9BB2136000F042FEE9
:109A20002B699842C0F0C581134B1B78022B40F084
:109A3000C08107F0C9F810F0010F80461AD1236DDC
:109A4000002B02DD1248FEF78DFE676917F0100744
:109A500022D13A463946B920FFF776FC0D4901205C
:109A6000FFF7F2FE4FF0FF33032219463846FFF7A7
:109A70000FFF11E0002310E040AC0120A0860100A0
:109A80000010001000540040D0AD0120CCAD0120EA
:109A9000784B0108334C0108012318F0020F1AD14A
:109AA000236D002B02DDAB48FEF75CFE676917F003
:109AB00020070FD13A460A21BA20FFF745FCA649F4
:109AC0000120FFF7C1FE4FF0FF330322194638464D
:109AD000FFF7DEFE012318F0040F1AD1236D002BCF
:109AE00002DD9E48FEF73EFE676917F040070FD182
:109AF0003A460B21BA20FFF727FC99490120FFF7CE
:109B0000A3FE4FF0FF33032219463846FFF7C0FE8D
:109B1000012318F0080F1AD1236D002B02DD9148A4
:109B2000FEF720FE676917F080070FD13A460A2139
:109B3000BB20FFF709FC8C490120FFF785FE4FF0A1
:109B4000FF33032219463846FFF7A2FE012318F01F
:109B5000100F1AD1236D002B02DD8448FEF702FEA0
:109B6000676917F480770FD13A460B21BB20FFF7C6
:109B7000EBFB7F490120FFF767FE4FF0FF33032225
:109B800019463846FFF784FE012318F0200F1AD13A
:109B9000236D002B02DD7748FEF7E4FD676917F4BB
:109BA00000570FD13A460C21BB20FFF7CDFB72497D
:109BB0000120FFF749FE4FF0FF33032219463846D4
:109BC000FFF766FE01236D48D4F89C7001686C4A6B
:109BD0008F4207462BDC136D002B04DDD2F89C204E
:109BE0006848FEF7BFFD606910F400701ED1664B37
:109BF0003A681F68002AABBFC2F307210246D2B2FF
:109C00000146002FA6BFF8B2C7F307230023009038
:109C1000B520FFF7C3FB5D490120FFF715FE4FF0AC
:109C2000FF33032219460020FFF732FE0123584F6D
:109C3000D4F8A0003968524AC911814240DB136D43
:109C4000002B26DDD2F8A030D2F8A0E0022293FB50
:109C5000F2F3504A0A40002A4FF0020091FBF0F163
:109C60004C48B8BF02F1FF320EEA0000BCBF62F000
:109C7000010201320028BEBF00F1FF3060F0010098
:109C8000013000EB8000009002EB82024248FEF7B8
:109C900069FDD4F8148018F4806810D13968424600
:109CA000C911B220FFF750FB3C490120FFF7CCFD62
:109CB0004FF0FF33022219464046FFF7E9FD01232A
:109CC000374FD4F8A40039682D4AC91181426DDBA1
:109CD000136D002B26DDD2F8A430D2F8A4E00222C6
:109CE00093FBF2F32B4A0A40002A4FF0020091FB4B
:109CF000F0F12848B8BF02F1FF320EEA0000BCBF05
:109D000062F0010201320028BEBF00F1FF3060F0B6
:109D10000100013000EB8000009002EB820221483C
:109D2000FEF720FDD4F8148018F4006840F0768126
:109D300039684246C911B120FFF706FB1A490120D4
:109D4000FFF782FD4FF0FF33022219464046FFF72E
:109D50009FFD63E14A4C01085A4C0108684C010818
:109D6000784C0108864C0108974C0108A64C010864
:109D7000B74C0108C64C0108D74C010858AE012069
:109D800000100010E64C010854AE0120004D0108FF
:109D9000D0AD0120010000800F4D01082D4D0108BC
:109DA000CCAD01203A4D0108584D0108002B40F080
:109DB00035819F4BD4F8AC201B689A4206DA9D4A45
:109DC0001268012A02BF9C4A00211160D4F8AC201D
:109DD000934205DC974B1B6813B9974B01221A601D
:109DE00000F0A8F9954B00200021C3E90001944B35
:109DF00000221A6000F0B0F96B6992489B1B42F296
:109E00001072934240F2108103789F1E7B427B4187
:109E100003F11A0204EB82025268164403F118029D
:109E200004EB8202466152684668013201361C33F7
:109E300096FBF2F104EB830302FB116242605E6861
:109E40005B6843FA02F2D3075ABFB6FA86F6760980
:109E50000326B1070BD57C4B1A68002AB5BF002139
:109E6000C2F307210A46D2B22120FFF76DFAF207AA
:109E70000BD500F05FF9754B00200021C3E900010C
:109E8000734B00221A6000F067F92B786A68022B86
:109E90000CBF7C23782323445E685B681341DB0797
:109EA0005ABFB6FA86F676090326B7070BD5694B73
:109EB0001A68002AB5BF0021C2F307210A46D2B2B0
:109EC0002220FFF741FAF0070BD500F033F9624B7F
:109ED00000200021C3E90001604B00221A6000F05D
:109EE0003BF92B786A68022B0CBF84238023234420
:109EF0005E685B681341D9075ABFB6FA86F67609E1
:109F00000326B20715D5564B1A68564B002A186817
:109F1000B5BF0021C2F307210A46D2B20028B5BF5F
:109F20000023C0F307231846C0B200902320FFF798
:109F300035FAF30728D500F0FDF84B4B4FF0000839
:109F40004FF00009C3E90089484B00261E6000F06D
:109F500003F900F0EFF8464BC3E90089454B1E605A
:109F600000F0FAF800F0E6F8434BC3E90089434BF0
:109F70001E6000F0F1F800F0DDF8414BC3E9008904
:109F8000404B1E6000F0E8F82B786A68022B0CBF8B
:109F90008C23882323445E685B681341DF075ABF24
:109FA000B6FA86F676090326B00715D5364B1A6839
:109FB000364B002A1868B5BF0021C2F307210A46B4
:109FC000D2B20028B5BF0023C0F307231846C0B2A1
:109FD00000902420FFF7E2F9F10748BF2A4B696897
:109FE00044BF00221A602B78022B0CBF94239023CD
:109FF0001C44636862680A41D2075ABFB3FA83F30C
:10A000005B0903239B070FD5214B1A68214B196865
:10A01000D211C9113020FFF797F905E000F042FB9B
:10A02000236A18442861C4E605B0BDE8F08300BF88
:10A0300064AE01206CAD012070AD012010AE012096
:10A0400028AE012040AC012068AE012040AE0120C6
:10A0500038AE012048AE012070AE012060AE012074
:10A0600058AE01204CAE012020AE012018AE0120D8
:10A0700078AE01205CAE012030AE01203CAE012064
:10A0800088AE012090AE01201CAE012054AE01200C
:10A09000D0AD0120CCAD012003480068006880F3FA
:10A0A000088862B600DF00BF08ED00E04FF0807363
:10A0B00000E90A00034B40F80C3C40F8202C4038E3
:10A0C000704700BF11A10008064B19680868B0E886
:10A0D000F00F80F309884FF0000080F311884EF0F4
:10A0E0000D0E7047D4AC0120044B4FF080521A6023
:10A0F000BFF34F8FBFF36F8F704700BF04ED00E0D9
:10A10000EFF311804FF0BF0181F3118870470020F9
:10A1100007B5074B1B68013302D1FFF7F1FF05E0DC
:10A1200001230193019B002BFCD1F6E7FEE700BF62
:10A130006CA8012008B5FFF7E3FF044A1368013358
:10A140001360BFF34F8FBFF36F8F08BD6CA8012062
:10A1500080F3118870470000034B186801381860BD
:10A1600008B9FFF7F5BF70476CA80120EFF309802D
:10A170000C4B1A6820E9F00F10602DE908404FF0F1
:10A18000BF0080F3118800F09DFB4FF0000080F3CA
:10A190001188BDE8084019680868B0E8F00F80F33E
:10A1A00009887047D4AC012008B5FFF7A9FF00F07B
:10A1B00085FA18B1044B4FF080521A600020BDE8B8
:10A1C0000840FFF7C5BF00BF04ED00E0064B4FF4A9
:10A1D0007A721B68B3FBF2F3044A013B1360044B31
:10A1E00007221A60704700BFE4AB012014E000E0D2
:10A1F00010E000E013B51F4B1A78D2B20192FF2293
:10A200001A701B78DBB28DF803309DF803201A4BCF
:10A2100002F0BF021A7007225A6000219DF8030065
:10A22000000602F1FF3408D59DF803205200D2B297
:10A230008DF8032001212246F0E701B15A605A68E7
:10A24000120202F4E0625A60019B0A4ADBB2137008
:10A250000A4B1A6842F47F021A601A6842F07F4281
:10A260001A60FFF7B3FF064B00201860FFF714FFDA
:10A2700002B010BD00E400E058AC012020ED00E089
:10A280006CA8012082B0EFF305830F2B0D4A09D88B
:10A290000D4B52681B6803F4E063934210D901230D
:10A2A00001930AE009495B5C11789942F0D90123D6
:10A2B0000093009B002BFCD1EAE7019B002BFCD113
:10A2C00002B0704758AC01200CED00E0F0E300E074
:10A2D000104B30B51C461A68824201D21346FAE789
:10A2E00059685D18A84201BF4068091818465960AE
:10A2F00041684518AA4207D1A468A24204D0526816
:10A30000114441601A6812680260984218BF1860D0
:10A3100030BD00BF60AC01202DE9F041044600F0E3
:10A32000B7F92F498B68BBB92E4A22F0070202F514
:10A33000BF3581E80C00C5F8F431C5F8F0312A4B7F
:10A3400005F5F87082E80900284A88601368083B20
:10A3500013604FF00043CB60D1F80C8018EA040F73
:10A3600035D1002C34D004F108035A071CBF23F068
:10A37000070308334BB31D4E3768BB4227D80D681F
:10A38000174A6868834203D889688D4206D11EE067
:10A3900028680028F8D02A460546F2E7296814689C
:10A3A00011606A68D21A102A04F1080404D9E81866
:10A3B00042606B60FFF78CFF6B68FF1A48EA03038B
:10A3C0006B60002337602B6002E01C4600E0002435
:10A3D00000F0F6F90CB9FDF7D1FF2046BDE8F08199
:10A3E00060AC012008000020F07F010070A801206F
:10A3F00013B5044648B3164A50F8043CD26813EA31
:10A40000020105D054F8080C60B10123019305E066
:10A410000120009000980028FCD1F3E7019B002B5D
:10A42000FCD112E089B123EA020344F8043C00F0B5
:10A430002FF9084A54F8041C1368A4F108000B44CF
:10A440001360FFF745FF00F0BBF902B010BD00BF7D
:10A4500060AC012070A8012008B5034C2368012BD3
:10A46000FDD9FFF741FEF9E770AC012010B50C4BA8
:10A470005A6E50609A6E9042044606D2D86E596E5B
:10A48000BDE81040043100F08DBB186F596E0431E7
:10A4900000F088FB034B1A68944238BF1C6010BD63
:10A4A00070AC012074A801202DE9F74F0CAE0F46C7
:10A4B00015469A4696E84009814610B1042E06D802
:10A4C0000AE001230093009B002BFCD1F6E7012357
:10A4D0000193019B002BFCD15020FFF71DFF044688
:10A4E000002800F0A680BBF1000F03D1A800FFF701
:10A4F00013FF00E05846206318B92046FFF778FFA5
:10A5000097E0AD002A46A5210AF03CF8236B043DF4
:10A510001D4425F007057B1E04F133020F3713F9A4
:10A52000011F02F8011F93F9001009B1BB42F6D1D7
:10A53000042E4FF00003B34604F1040728BF4FF088
:10A54000040B84F843303846C4F82CB0C4F84CB03F
:10A5500000F019FB04F1180000F015FBCBF1050326
:10A560002461A3616462524649462846FFF79EFD76
:10A570002060B8F1000F01D0C8F800402F4DFFF760
:10A58000D9FD6B6F01336B676B6E33BB6C666A6FA3
:10A59000012A2AD1984605EB080008F1140800F0BA
:10A5A000E7FAB8F1640FDFF89490F4D109F1780A72
:10A5B000504609F18C0800F0DBFA404600F0D8FA6A
:10A5C00009F1A00000F0D4FA09F1B40000F0D0FACB
:10A5D000C9F870A0C9F86C8007E0D5F8C83023B975
:10A5E0006B6EDB6A9E4228BF6C66D5F8CC30D5F81E
:10A5F000D0200133C5F8CC306364E36A934288BF4E
:10A600000E4A4FF0140000FB0350394688BFC2F8D1
:10A61000D03000F0BBFAFFF79FFDD5F8C83033B15A
:10A62000064B5B6EDB6A9E4201D9FFF75DFD0120A0
:10A6300001E04FF0FF3003B0BDE8F08F70AC0120B7
:10A6400030B587B00024039402940194009423460B
:10A6500078220C490C48FFF727FF0128054608D14E
:10A66000FFF74EFD094BC3F8C8509C66FFF7C2FDCB
:10A6700005E020B901230593059B002BFCD107B011
:10A6800030BD00BF794D010859A4000870AC01200D
:10A69000034AD2F8D4300133C2F8D430704700BF37
:10A6A00070AC012010B5FFF745FD034B9C6EFFF722
:10A6B00053FD204610BD00BF70AC01202DE9F74FBF
:10A6C0003D4CD4F8D430002B47D1A36E0133A366A0
:10A6D000D4F86880B8F1000F1ED1236F1B687BB9D6
:10A6E000236FE26E2267E366D4F8D8300133C4F8F2
:10A6F000D830236F1A68314B42B94FF0FF320AE06D
:10A7000001230193019B002BFCD1E9E72A4A126F38
:10A71000D268D26852681A60284F3B6898454FF05B
:10A72000000511D3DFF890904FF0140B236F1B68D6
:10A7300013B94FF0FF3306E0D9F87030DB68DE68FC
:10A740007368984510D23B60636EDA6A14235343F2
:10A75000E358022B28BF012524E0D4F8DC30013374
:10A76000C4F8DC3000251DE006F1040A504600F074
:10A7700031FAB36A1BB106F1180000F02BFAF06A47
:10A78000D4F8D030984288BFC9F8D00051460BFBAE
:10A79000004000F0FBF9636EF26ADB6A9A4228BF60
:10A7A0000125C3E7D4F8E030002B18BF0125284667
:10A7B00003B0BDE8F08F00BF70AC012074A8012089
:10A7C0002DE9F743314CD4F8D4305BB1FFF7B2FC3C
:10A7D000D4F8D4302D4D013BC4F8D430D4F8D43063
:10A7E00043B105E001230193019B002BFCD1EDE770
:10A7F000002444E06B6F002BFAD04FF01408A946F8
:10A80000D4F8A020214BFAB1D5F8AC30DE68371D62
:10A8100006F1180000F0DEF9384600F0DBF9F06AC6
:10A82000D5F8D030984288BFC5F8D000394608FB2B
:10A83000004000F0ABF9636EF26ADB6A9A42DFD344
:10A840000123C9F8E030DBE7D3F8DC2032B9D4F8D3
:10A85000E040012CCCD1FFF747FC10E01D4601265B
:10A86000D4F8DC30002BF2D0FFF728FF08B1C5F890
:10A87000E060D4F8DC30013BC4F8DC30F0E7FFF7EF
:10A880006BFC204603B0BDE8F08300BF70AC012034
:10A8900010B518B9BDE81040FFF726BCFFF7F8FE69
:10A8A000074A936EC418506E043000F093F92046A6
:10A8B000FFF7DCFDFFF784FF0028EBD010BD00BFE1
:10A8C00070AC012037B5284BD3F8D4201C461AB100
:10A8D0000122C3F8E02045E0C3F8E0205A6E5B6E29
:10A8E00012681B6B9A4204D8606E616E3431FDF7BA
:10A8F0003CFD636E1D49186B1B4D142209F076FD5B
:10A9000020B1686E696E3431FDF72FFD16491422AF
:10A910000120D4F8D030144D5343E3586BB9D1F82B
:10A92000D0302BB1D4F8D030013BC4F8D030F0E7B0
:10A930000190019B002BFCD1F4E7D5F8D010142234
:10A9400002FB01F3EA1808335068406850602B445A
:10A95000984204BF43685360142303FB01414B68D2
:10A96000DB68636603B030BD70AC0120654D010843
:10A9700037B50D4688B10F4C616E183100F012F9F1
:10A98000606E043000F026F96B1C0CD1616E04F18E
:10A99000B400043100F0FAF809E001230193019BAF
:10A9A000002BFCD1E7E7A06E2844FFF75FFD03B062
:10A9B00030BD00BF70AC012073B5C368DD68C5B1A0
:10A9C00005F11806164C304600F004F9D4F8D430DE
:10A9D000ABB92E1D304600F0FDF8EB6AD4F8D0205C
:10A9E0001420934288BFC4F8D030314600FB0340A6
:10A9F00008E001230193019B002BFCD1E0E73146E5
:10AA000004F1A00000F0C2F8636EEA6ADB6A9A42C1
:10AA100025BF034B01200020C3F8E00002B070BD49
:10AA200070AC012082B038B1064BD3F8D8209B6EB1
:10AA30000260436002B0704701230193019B002B29
:10AA4000FCD1F1E770AC012037B50D46044608B1E2
:10AA50005DB905E001230093009B002BFCD1F7E7D3
:10AA600001230193019B002BFCD1FFF763FB2B68B3
:10AA70000E4A581C916E10D0D2F8D820206890420F
:10AA8000626801D091420AD2881A834207D9521AC9
:10AA900013442B602046FFF7C5FF002400E001248B
:10AAA000FFF75AFB204603B030BD00BF70AC012059
:10AAB000024B0122C3F8E020704700BF70AC0120B8
:10AAC000014B586E704700BF70AC012070B5044652
:10AAD00048B3154BC26A596EC96A8A421D4622D2D2
:10AAE000596EC96AC1F105018161142101FB02326D
:10AAF0004169914214D1061D304600F06BF86B6E2F
:10AB0000D5F8D020DB6AE362934201D9C5F8D03092
:10AB10001420314600FB0350BDE8704000F036B809
:10AB20005B6EDB6AC36270BD70AC012038B5044651
:10AB3000D8B1C26AC36C9A4217D0051D284600F0EE
:10AB400049F8E26CE262C2F10503A361074BD3F856
:10AB5000D0108A4288BFC3F8D0201420294600FBB9
:10AB60000230BDE8384000F011B838BD70AC0120AB
:10AB700000F1080343604FF0FF32C360036100231C
:10AB800082600360704700230361704743684B6035
:10AB90009A688A609A685160996008610368013315
:10ABA000036070470A68531C30B501D1036907E0A0
:10ABB00000F108035C682568AA4201D32346F9E73F
:10ABC0005A684A6091608B6059600861036801337C
:10ABD000036030BD436882689A60836842685A6047
:10ABE00003695A68904204BF82685A600022026179
:10ABF000186801381860704738B51546026C04466D
:10AC000032B905683DBB4068FFF790FF656022E000
:10AC100065B9806809F01CFCA268236C1344626863
:10AC2000A360934217D32368A36014E0C06809F0BF
:10AC30000FFC236CE26821685B421A448A42E2609E
:10AC40003EBF62689B18E360022D04D1A36B13B171
:10AC5000A36B013BA363A36B0133A36338BD03461E
:10AC600030B41C6808465CB1D9681A6C5D68114440
:10AC7000A942D96028BFDC60D96830BC09F0E8BBC4
:10AC800030BC704738B50446FFF754FA04F1240588
:10AC9000A36C002B0BDD636A4BB12846FFF78CFEDB
:10ACA00008B1FFF705FFA36C013BA364F0E74FF089
:10ACB000FF33A364FFF750FAFFF73CFA04F11005E5
:10ACC000636C002B0BDD23694BB12846FFF774FE44
:10ACD00008B1FFF7EDFE636C013B6364F0E74FF0F2
:10ACE000FF336364BDE83840FFF736BA37B50D4629
:10ACF000044698B1FFF71EFA206CE36B2268A2604D
:10AD00004343D1181B1A13446160E36000214FF0E4
:10AD1000FF33A1636364A36435B110E001230193A1
:10AD2000019B002BFCD1E5E7236983B104F11000FE
:10AD3000FFF742FE01280AD1FFF7D6F907E004F138
:10AD40001000FFF715FF04F12400FFF711FFFFF7D4
:10AD500003FA012003B030BDF7B50E46174605468D
:10AD6000B8B15020FFF7D8FA044690B106FB05F0C1
:10AD70000130FFF7D1FA206040B1E563266401217C
:10AD80002046FFF7B3FF84F84D7007E02046FFF739
:10AD90002FFB01230193019C002CFCD1204603B022
:10ADA000F0BD2DE9F04389B0884601921E46044665
:10ADB00018B1B8F1000F0DD105E001230393039BF7
:10ADC000002BFCD1F5E7236C23B101230493049BF2
:10ADD000002BFCD1022E07D1E36B012B04D0012301
:10ADE0000593059B002BFCD10027B9462FE017B92E
:10ADF00006A8FFF717FEFFF7AFF9FFF749FCFFF7CB
:10AE000099F9636C013308BFC4F84490A36C013313
:10AE100008BFC4F84890FFF79FF901A906A8FFF7FB
:10AE200013FE00283ED1FFF785F9A76BE56BFFF70E
:10AE300093F9AF4230D1019904F11000FFF798FD6A
:10AE40002046FFF71FFFFFF7BBFC10B30127FFF7FA
:10AE500071F9A26BE36B9A4201D3022E12D13246F2
:10AE600041462046FFF7C8FE636A3BB104F1240067
:10AE7000FFF7A2FD012801D1FFF736F9FFF76CF9C2
:10AE8000012015E0019D002DB1D1FFF765F928469D
:10AE90000EE0FFF729F9D9E72046FFF7F3FEFFF7A9
:10AEA0008FFCD3E72046FFF7EDFEFFF789FC00207B
:10AEB00009B0BDE8F08373B506465020FFF72CFAC1
:10AEC0000446E0B101230025C3634FF0FF338563DF
:10AED00045604364056083648560C560056480F8EF
:10AEE0004D601030FFF744FE04F12400FFF740FEF0
:10AEF0002B462A4629462046FFF753FF04E001234C
:10AF00000193019B002BFCD1204602B070BD2DE9BE
:10AF1000FF41884616461D46044618B1B8F1000F99
:10AF20000DD105E001230193019B002BFCD1F5E736
:10AF3000236C23B101230293029B002BFCD1022D31
:10AF400007D1E36B012B04D001230393039B002B58
:10AF5000FCD1FFF797F9FFF7D3F8A26BE36B9A42A6
:10AF6000074601D3022D17D12A4641462046FFF756
:10AF700043FEA36C01330AD1636A5BB104F1240080
:10AF8000FFF71AFD30B12EB10124346005E0A36C47
:10AF90000133A364012400E000243846FFF7D8F809
:10AFA000204604B0BDE8F0812DE9F04387B00F469C
:10AFB00001929946044608B16FB905E00123029356
:10AFC000029B002BFCD1F7E7236C23B101230393F1
:10AFD000039B002BFCD10026B04638E016B904A82C
:10AFE000FFF720FDFFF7B8F8FFF752FBFFF7A2F8D5
:10AFF000636C013308BFC4F84480A36C013308BFFD
:10B00000C4F84880FFF7A8F801A904A8FFF71CFDC1
:10B01000002858D1FFF78EF8A56BFFF79DF8002D9B
:10B020004BD1236833B9FFF785F86068FFF74EFD11
:10B03000FFF792F8019904F12400FFF799FC2046EC
:10B04000FFF720FEFFF7BCFB002833D00126FFF7F7
:10B0500071F8A36B3BB339462046E568FFF7FFFD67
:10B06000B9F1000F12D1A36B013BA363236813B99D
:10B07000FFF726FD606023698BB104F11000FFF734
:10B080009BFC01280BD1FFF72FF808E0636AE5600D
:10B090002BB104F12400FFF78FFC0028F3D1FFF758
:10B0A0005BF8012015E0019D002D97D1FFF754F8C2
:10B0B00028460EE0FFF718F8C8E72046FFF7E2FD44
:10B0C000FFF77EFBC2E72046FFF7DCFDFFF778FBCA
:10B0D000002007B0BDE8F0831FB50446FDF72AFA4B
:10B0E000E3680BB1206B984700236268E06A02A90D
:10B0F000FFF75AFF012820D1E36B0133E363029B82
:10B10000002B07DBA268934204DA029AA3689342F9
:10B110000CDC16E00D4B0E490E484B22FDF722FBCE
:10B1200001230193019B002BFCD1EEE7236943B17E
:10B1300053F822302BB1039802E063690BB120462B
:10B140009847A369002BCFD02046CCE7A64D010835
:10B150007E4D0108F44801087FB5C36A04460D46D8
:10B160001646002B3FD0002909DB8368994206DA96
:10B1700002950396FDF768F8034660B91BE01C4B87
:10B180001C491D481B22FDF7EDFA01230093009B8B
:10B19000002BFCD1ECE704AA002342F80C3D02A9E5
:10B1A000E06AFFF7B4FE019B054653B1134B4FF025
:10B1B00080521A6005E0024602A9E06AFFF7F1FD3D
:10B1C0000546FEF7B7FF1DB1636B0133636302E011
:10B1D000A36B0133A363FEF7BFFF15F1FF3018BF68
:10B1E0004FF0FF3001E04FF0FF3004B070BD00BF02
:10B1F000EB4D0108894D0108F448010804ED00E019
:10B2000010B50022044686B008210068FFF7A4FDAF
:10B21000E062D8B1236A616A0291042293FBF2F2E0
:10B22000002303930193E369009392B22346A16A3A
:10B230000F48FFF739F9012817D00E4B0E490F4878
:10B240006522FDF78FFA012305930BE00C4B0A49A9
:10B250000A486022FDF786FA01230493049B002B21
:10B26000FCD1D7E7059B002BFCD106B010BD00BF79
:10B27000D9B00008824E01089B4D0108F44801082E
:10B28000204E010808B5FDF731FC0820BDE8084054
:10B2900003F0A6BD143802F025BC10B50446826840
:10B2A00041680078FDF720FCA4F11400BDE81040CF
:10B2B00002F018BC10B50446037B82684168007830
:10B2C000FDF7A2FAA4F11400BDE8104002F00ABC98
:10B2D0000148FFF795BF00BF78A801202DE9F04194
:10B2E000804610200F4616461D4602F0A1F904467E
:10B2F00080B180F814808761C66180F8205000F129
:10B30000140200210748FFF727FF002806DA20462D
:10B3100002F0E8FB4FF0FF30BDE8F0810020BDE80F
:10B32000F08100BF78A80120F8B507460C200E4632
:10B33000154602F07DF9044668B107758661C5615E
:10B3400000F1140201210648FFF706FF002805DA84
:10B35000204602F0C7FB4FF0FF30F8BD0020F8BDDB
:10B3600078A801202DE9F041804620200F4616469E
:10B370001D4602F05DF90446B8B1069B4362079B87
:10B380008362089BC362099BC0F814808761C66111
:10B390000562036300F1140202210748FFF7DCFE97
:10B3A000002806DA204602F09DFB4FF0FF30BDE892
:10B3B000F0810020BDE8F08178A801201FB5C369A5
:10B3C00003938369029343690193036900930446DD
:10B3D000011D0EC954F81409FEF7DCFA204604B02A
:10B3E000BDE8104002F07EBB2DE9F3470420DFF8F2
:10B3F000DC8003F0F5FC002647464FF4E0755FFA69
:10B4000086F9002475434FF0E00A0AFB045AC2444F
:10B41000DAF80430002B48DDFFF744F9DAF80C3095
:10B42000C01A142841D9DAF80430002B0CDDE021D1
:10B4300001FB0451394400234A6809684846FFF774
:10B440004DFF00280DDA22E01C4B1D491D484FF42A
:10B45000B672FDF787F901230093009B002BFCD106
:10B46000E5E7202002F0E4F800B11430E02303FB0C
:10B470000453F85058B9144B1149124840F2731252
:10B48000FDF770F901230193019B002BFCD1E02310
:10B4900003FB04533B44002220201A715A719A7115
:10B4A000DA7118725A729A72DA720134022CAAD1C5
:10B4B0000136032EA1D102B0BDE8F087C04F0108CC
:10B4C000544F0108F4480108DD4F01089884012019
:10B4D0002DE9F04F0478D0F80170022C87B00546B2
:10B4E00014D83C4E502303FB04631B7E9F424FF055
:10B4F00000036AD04FF4E078DFF8E89008FB04F22C
:10B50000019298464FF0E00BCA462FE0324B334988
:10B51000334840F2A512FDF725F901230593059B59
:10B52000002BFCD1DDE7702161433820002200FBB5
:10B530000811881806300AEB8000406830B11438D2
:10B540000391029202F0CEFA0399029A0132102A74
:10B55000EFD1019B0BFB0830E0220021504408F1A1
:10B56000010809F00FF8B8F1020F17D04FF4E0729C
:10B5700062430BFB082209EB020103920868029167
:10B580000028D0D0143802F0ADFA0299039A0020B6
:10B5900009F8020048708870C870C4E7502337B9B2
:10B5A00003FB04635A6952B11F766F710EE0012FDD
:10B5B00005D103FB04631A690AB11F7604E0502326
:10B5C00003FB04640223237600236B7107B0BDE8FC
:10B5D000F08F00BFBCAA0120F24F01085E4F0108A6
:10B5E000F4480108988401202DE9F04FC5B285B0D8
:10B5F000022D0090C0F307260BD84FF4E07303FB35
:10B6000005F2E023624F03FB0623FB58002B3AD1DF
:10B610000CE0604B6049614840F22912FDF7A2F846
:10B6200001230193019B002BFCD1E6E7202001F0D0
:10B63000FFFF00B114304FF4E07303FB05F2E02389
:10B6400003FB0623F85088B14FF4E073E0226B430C
:10B6500002FB06333B44002201201A715A719A7191
:10B66000DA7118725A729A72DA720CE04C4B4A49CB
:10B670004A484FF49972FDF775F801230293029B33
:10B68000002BFCD1E0E74FF0140808FB05684FF4ED
:10B69000E0746C43E02303FB06443C44A24661682B
:10B6A00020685AF8082FDFF8FC90521A59F8283011
:10B6B0000144284698478346002865D0636863B9EB
:10B6C00023681878FDF784F801462846FDF794F8BA
:10B6D000A060FEF7E7FFCAF804006068A36858445A
:10B6E00098426060DADB23681B78552B03D003F0A7
:10B6F000C003C02B04D1FEF7D5FF09EB8803D86344
:10B70000502303FB059999F818309E4211D04FF44D
:10B71000E073E0226B4302FB06333B44002201202E
:10B720001A715A719A71DA7118725A729A72DA72BF
:10B73000ADE74FF4E071E023694303FB06113944A0
:10B7400000234A6809682846FFF7C8FD0028DEDBA9
:10B75000202001F06DFF00B114304FF4E07303FBC3
:10B7600005F2E02303FB0623F8500028CFD10C4B51
:10B7700009490A4840F24F12FCF7F4FF01230393F2
:10B78000039B002BFCD1C2E705B0BDE8F08F00BFE2
:10B7900098840120F24F0108694F0108F44801081C
:10B7A000DD4F0108BCAA01202DE9F347C4B2022CE9
:10B7B000009017D89DF8017056484FF4E072E023CE
:10B7C000624303FB07220244702161431369382559
:10B7D00005FB07152B44991D00EB81018046496844
:10B7E00069B994E04C4B4D494D484FF48372FCF7D6
:10B7F000B9FF01230193019B002BFCD1DAE716333B
:10B8000000EB83035B68002B47D11646B14601214C
:10B8100059F8103FDFF8FCA02B44263308EB8303D4
:10B8200020465A68FFF780FD002803DA0120FFF761
:10B830002FF8EBE7D9F800302B4406330AEB8303EB
:10B840005868143802F04EF9D9F800100D44063546
:10B850000AEB850500232B716B71AB71EB7186F8D8
:10B86000DC3086F8DD3086F8DE3086F8DF302D4BB0
:10B8700001310B40002BBEBF03F1FF3363F00F0318
:10B880000133C9F800304FF4E073E022634302FB58
:10B89000073343449A69013A9A614FF4E075E02313
:10B8A000654303FB075545441A4EAB697BB3A94674
:10B8B0004FF0700859F8103FD5F8DC0008FB04F28F
:10B8C0004FF0380808FB0728434403F116020633FB
:10B8D00006EB830306EB820259685268142303FBCC
:10B8E00004770237104B014453F82730204698471D
:10B8F000D5F8DC300344C5F8DC30D9F80030984482
:10B9000008F1160806EB88067368181A706002B012
:10B91000BDE8F08798840120F24F0108704F0108BC
:10B92000F44801080F000080BCAA01202DE9F04F67
:10B930000578022D85B0044606D8D4F80130187871
:10B94000FCF746FF60B914E0844B854985489B228B
:10B95000FCF708FF01230293029B002BFCD1ECE7CC
:10B9600000EB8502536B01335363436A002B40F0B5
:10B97000E9807D4EF369002B3DD0D4F801301B786F
:10B98000B12B05D8B02B08D2552B03D0A22B00E049
:10B99000CC2B05D1F269022A2DDDF269012A2ADDBC
:10B9A000F269032A03DD704AD2699A4223D1336DCA
:10B9B000022B0BDDFEF776FED4F801206B4B1278DC
:10B9C00053F8253001466A48FCF7CCFE0027D4F82E
:10B9D00005309F42336D09DA022B05DDD4F80130C2
:10B9E0006448D95DFCF7BEFE0137F0E7022B02DDAB
:10B9F0006148FCF7B7FE4FF05008604BDFF88891C4
:10BA0000019308FB05F808F1080898440027CA4686
:10BA1000019A5023012F03FB052302D11B6923B98F
:10BA200090E05B69002B00F087804FF4E076E02324
:10BA30006E4303FB07664E44B369102B0BD1D4F859
:10BA4000092000212846FFF76FFC002874DA012046
:10BA5000FEF71EFFF3E7D4F801001036143802F0A9
:10BA60007FF970237268D4F8050038216B4301FB1D
:10BA70000733134409EB830109EB8303C865D4F84A
:10BA80000100C861D4F80910C3F89C103C4B013286
:10BA90001340002BBEBF03F1FF3363F00F030133EC
:10BAA00073604FF4E0736B43E02202FB07335344AF
:10BAB0009E690136012E9E613ED1D3F8DC3083BBF6
:10BAC0004FF4E076E0236E4303FB07665644B3462B
:10BAD00070225BF8103F38216A4301FB07221344B0
:10BAE000009203F1160206330AEB8303D6F8DC104A
:10BAF0005868D8F800300AEB8202014452682846A0
:10BB00009847D6F8DC30009A0344C6F8DC30DBF8FE
:10BB10000030134416330AEB83035A68101A586036
:10BB20000AE0184B0E490F48DE22FCF71BFE039675
:10BB3000039B002BFCD1C3E70137022F08F1040857
:10BB40007FF466AFD4F80100143801F0CBFFA4F104
:10BB5000140001F0C7FF05B0BDE8F08FF24F0108F7
:10BB6000774F0108F448010800100010D8AB0120FD
:10BB700006500108694801089C4A0108BCAA012036
:10BB80000F000080205001089884012008B54FF470
:10BB9000A8620021034808F0F5FC0348BDE808400E
:10BBA000FFF72EBB98840120B8A801202DE9F341AE
:10BBB00005460D200E461746984601F039FD20B186
:10BBC000022D00F114040FD902E0022D1ED9044603
:10BBD000124B134913487322FCF7C4FD0123019350
:10BBE000019B002BFCD18CB12570C4F80160C4F816
:10BBF0000570C4F80980224600210B48FFF7ACFA13
:10BC0000002806DAA4F1140001F06CFF4FF0FF30B9
:10BC100000E0002002B0BDE8F08100BFF24F010853
:10BC20007E4F0108F4480108B8A80120022873B526
:10BC300005460E46144608D800230193E3078DF805
:10BC400004508DF805600CD517E0114B11491248CE
:10BC5000ED22FCF787FD01230093009B002BFCD114
:10BC6000EAE704F0020404F0FF007CB1019A0B48FB
:10BC70000221FFF771FAC01708E0019A0748012175
:10BC8000FFF76AFA0028ECDA4FF0FF3002B070BD1F
:10BC9000F24F0108884F0108F4480108B8A80120B4
:10BCA00073B5054606200E4601F0C2FC20B1022DF8
:10BCB00000F1140410D902E0022D1DD90446164BE0
:10BCC000164917484FF4C472FCF74CFD0123019349
:10BCD000019B002BFCD17CB101232570C4F80160CD
:10BCE0006371224603210F48FFF736FA002806DA6F
:10BCF000A4F1140001F0F6FE4FF0FF300AE0657980
:10BD00001DB10120FEF7C4FDF9E7A4F1140001F014
:10BD1000E9FE284602B070BDF24F01089D4F0108B0
:10BD2000F4480108B8A8012038B50446FEF702FA25
:10BD3000A268002A10DD2368E118013A0D7BA26099
:10BD4000591C084B0B40002BBEBF03F1FF3363F0BF
:10BD5000FF030133236001E04FF0FF35FEF7FCF9EC
:10BD6000284638BDFF00008038B504460D46FEF772
:10BD7000E1F9A268FF2A11DC6368E018591C0A4B3C
:10BD800005730B40002BBEBF03F1FF3363F0FF03CD
:10BD9000013301326360A260002401E04FF0FF3400
:10BDA000FEF7DAF9204638BDFF0000802DE9F843A0
:10BDB0005026DFF834900D4601EB02080C4646434E
:10BDC0004445A4EB05070BD009EB0603586900F5C1
:10BDD0008670FFF7A9FF002802DB04F8010BEFE7EC
:10BDE0003846BDE8F88300BFBCAA01202DE9F8431E
:10BDF000134F0E4680461546FEF79CF950233544F6
:10BE0000344603FB0877AC42C6EB040906D014F8AD
:10BE1000011B7869FFF7A8FF0028F4DAFEF79CF908
:10BE20000748502303FB08000122436940F22771B1
:10BE3000D3F8180205F0F0FB4846BDE8F88300BFD0
:10BE4000BCAA01202DE9F84F03F1080A81465046AB
:10BE50008B4690461D460A9F0B9EFCF702FBA8F1FD
:10BE6000040152465944044608F0F2FA1048DFF83B
:10BE700044E036BA3FBA0022291D8A420EDCA3589C
:10BE8000834204EB020C04D0734505D1CCF800606A
:10BE900000E0A7500432F0E70132EEE72A46211D08
:10BEA000484608F0D5FA2046BDE8F84FFCF7EABA54
:10BEB000ABCDEF01ABCDEF022DE9F74F847FC37F10
:10BEC00080464FF480708946924643EA0424FCF78A
:10BED000C8FA002506462F46002C18DDB4F5807FF1
:10BEE000A3463A46A8BF4FF4807B4FF48073414687
:10BEF00030468DE80006FFF7A5FF28465A46314632
:10BF0000F4F7D4F95F44CBEB04040546E4E730468C
:10BF1000FCF7B8FA28BA03B0BDE8F08F2DE9F0417C
:10BF2000484E50270C4607FB00678CB005464FF47F
:10BF30007A70D7F81080FEF7ABFC6168206807F0D4
:10BF40009DFB00286ED0214608F2151304F10C0267
:10BF500051F8040B43F8040B9142F9D10A883A4C8A
:10BF60001A80236D012B08DDD8F81D31D8F819216E
:10BF7000D8F815113548FCF7F5FB01212846FFF7E5
:10BF80008FFE4FF0FF33012218461146FDF780FC6B
:10BF90002F4B1B68012B07D0737EEB2B8CBF4FF010
:10BFA000070E4FF0030E01E04FF0070E294B6A46D3
:10BFB00003F1100CE84618685968174603C70833A0
:10BFC00063453A46F7D100234EFA03F2D20748BF41
:10BFD00008F803300133102BF6D107F07EFD03047F
:10BFE00003D40120FEF754FCF7E704A807F082FA17
:10BFF000236D022B04DDBDF81D101748FCF7B2FBC2
:10C00000404607F061FB502303FB0566284696F87F
:10C01000203086F82130022386F82030FCF7BAFD64
:10C0200000200CE097F820300BB187F82130502326
:10C0300003FB0565002385F820304FF0FF300CB07E
:10C04000BDE8F081BCAA012000100010B0D00108AA
:10C0500034AC012048500108F6D0010807B5002390
:10C0600001938DF804008DF80510019A03481946D4
:10C07000FFF772F8C01703B05DF804FBF8A80120C1
:10C080002DE9F3410E461749502303FB00130746E1
:10C09000D3F81080154600244DB14046FFF744FE0A
:10C0A0000028A2BF307001340136013DF4E7D8F812
:10C0B0000830002B12DD022201213846FFF7B6FDC1
:10C0C00000280BDA084B094909484FF4DF72FCF7E6
:10C0D00049FB01230193019B002BFCD1204602B0B8
:10C0E000BDE8F081BCAA012022D101085850010806
:10C0F000F4480108F8B5064609200F46154601F038
:10C1000097FA044678B147618561067700F1140219
:10C1100001210648FFF720F8002805DA204601F043
:10C12000E1FC002500E005462846F8BDF8A80120FE
:10C1300007B50120FEF7BFFE0B4B186030B10B486E
:10C140000063FFF75DF803B05DF804FB084B094995
:10C1500009484FF4E672FCF705FB01230193019BAC
:10C16000002BFCD1EBE700BF54AD0120F8A8012063
:10C1700066D1010867500108F448010837B5054643
:10C1800060B10F4C00234FF0FF3219462068FEF7D4
:10C190000BFF01280FD04FF0FF300EE0094B0A498A
:10C1A0000A4840F2D512FCF7DDFA01230193019B06
:10C1B000002BFCD1E5E76560002003B030BD00BF77
:10C1C00054AD012088D1010875500108F4480108D8
:10C1D0000548436833B1002343601A461946006896
:10C1E000FEF7DFBD704700BF54AD01202DE9F04FD1
:10C1F000614C23688DB0002B00F0BA805F4E37464B
:10C200002368DFF87481002B00F0B2804046FFF70E
:10C21000B5FF07F062FC4FF6FF7398420546A8F899
:10C22000380039D010F02F082ED0030706D5544B14
:10C230001B6D012B02DD5348FCF794FA680709D502
:10C240004F4B1B6D012B05DD218F4F48C1F3422160
:10C25000FCF788FAA9070BD5494B1B6D012B02DDB2
:10C260004A48FCF77FFA94F83A30013384F83A30C0
:10C27000EA0706D5424B1B6D012B02DD4448FCF753
:10C2800071FA404607F064F8258F05F4C075A5F5EE
:10C29000C0735D425D4100E00025FFF799FF002D6E
:10C2A00066D0DFF8D4804046FFF768FF0CAA00256F
:10C2B0000DF1100902F8295D494603A8039507F01E
:10C2C00069F88246FFF784FFBAF1000F98D0D8F8DA
:10C2D0001CE003992B464FF0500C0CFB0362DDB2BF
:10C2E000106968B1D0F80C0150B1A04208D18E4558
:10C2F00006D19DF8073093B1936C013393640EE03F
:10C300000133032BE9D1022D08D11D4B1B6D002BEE
:10C310007FF776AF1F48FCF725FA71E70025BAF1E1
:10C32000000F3FF46DAF502303FB05734FF000087F
:10C33000D3F810B019F80810584608F10108FFF7B3
:10C3400013FDC245F6D1022201212846FFF76EFCFB
:10C350000028BFF655AF104B104911484FF4CA7270
:10C36000FCF700FA01230293029B002BFCD147E764
:10C370000DB0BDE8F08F00BFD4AD0120BCAA0120F4
:10C3800000100010FFD1010813D2010832D20108B9
:10C390004DD201088CD10108C1D101087F5001089C
:10C3A000F448010807F050B900207047F0B5C0F319
:10C3B000072285B0022A039041D0032A00F0818031
:10C3C000012A40F0CA809DF80C50654A502303FBB7
:10C3D00005231C69002C00F0C0801A7E012A93F806
:10C3E000202026D1002A00F0B880002083F82120E8
:10C3F00083F82000FDF75EF85A4B1B6D012B08DD1A
:10C40000D4F81D31D4F81921D4F815115648FCF789
:10C41000A9F900212846FFF743FC00224FF0FF3323
:10C4200011461846FDF734FAD4F815210321D2B28B
:10C430007CE0032A40F0918083F821202CE09DF8D5
:10C440000C504749502303FB05131C69002C00F0D6
:10C450008480197E93F82000012919D101287CD10C
:10C4600083F8210083F82020FDF724F83D4B1B6D55
:10C47000012B08DDD4F81D31D4F81921D4F8151199
:10C480003A48FCF76FF9D4F815210221D2B24DE0F9
:10C49000032862D183F82100002083F82000FDF7F3
:10C4A00009F8304B1B6D012B57DDD4F81D31D4F842
:10C4B0001921D4F815112E4805B0BDE8F040FCF75D
:10C4C00051B9274C9DF80C50502303FB05432746D8
:10C4D0001E693EB11C7E012C04D193F82030022B42
:10C4E0003BD127E0502303FB057393F82030A3BB17
:10C4F0001C4B1B6D012B05DD1E4B1F4853F82510EF
:10C50000FCF730F90323502202FB057494F8202035
:10C5100084F8212084F82030FEF7C4F8206302203C
:10C52000FCF7C8FFD6F815210121D2B22846FFF743
:10C530003BFF12E00B4B1B6D012B0CDDD6F81D11E0
:10C54000D6F81931D6F8152100910A490B4851F84F
:10C550002510FCF707F92346D5E705B0F0BD00BF6D
:10C56000BCAA01200010001066D20108C6D2010842
:10C5700093D20108D8AB01203DD30108FCD20108B9
:10C580002DE9F04F91B0A14E0190FFF7F7FDDFF8D4
:10C5900084B24FF0000934695FFA89FA002C00F088
:10C5A000EE8007F09AFA10F4807F96F8203023D0BE
:10C5B0003BB986F821305046022386F82030FCF73C
:10C5C000E9FA08A806F096FFBDF83C30A4F821313E
:10C5D000BDF83830019AC3F30B0303EB830303EB7D
:10C5E000830313639DF83930FA221B095343019AE0
:10C5F00003F5FA635363C2E0013B012B1ED8DBF85D
:10C600005030012B08DDD4F81D31D4F81921D4F8AD
:10C6100015117F48FCF7A6F87E4B1B6D012B02DD40
:10C620007D48FCF79FF80023089301238DF820A094
:10C630008DF821300898FFF7B9FEA0E007F04DFA19
:10C64000030403D40120FEF723F9F7E710220021A9
:10C6500008A807F097FFD4F80C311B6A23F0FE02FC
:10C66000089223F0FF0342F00202099243F0010214
:10C6700043F003030A920B930027684B1D68012DBA
:10C6800005D0624B5D7EEB2D94BF00250125644BE8
:10C69000644A002F18BF1A460E2303FB0743039278
:10C6A0000293DBF85030DFF86C81022B0FDD10AA0B
:10C6B00007EB450302EB83035B495C4A53F8203CDC
:10C6C0005B48002D08BF0A460399FCF74BF810AAF7
:10C6D00007EB450302EB830305A853F8201C4FF436
:10C6E0007A7206F049FF029B059AC3F8232103F5ED
:10C6F0009071069BC1F807300298079BC0F82B3158
:10C700005AB1444A126D022A16DDD1F80720494871
:10C71000D1F80310FCF726F80EE03E4B1B6D022B00
:10C7200002DD4548FCF71EF8384B5B7EEB2B03D847
:10C73000012D01D10025B4E70137022F9DD1D4F896
:10C740003F310E2202FB034303F59073D3F803201D
:10C75000002A53D0D8F85010022904DDD3F807106E
:10C760003648FBF7FFFFD4F83F310E2101FB0341B0
:10C7700001F223115046FFF7D1FB00280DDB09F130
:10C780000109B9F1030F06F150067FF404AFFFF77A
:10C790001FFD002011B0BDE8F08FD8F85030002BFD
:10C7A00002DD2748FBF7DEFFD4F83F310E22C3F14C
:10C7B000010302FB034303F59073D3F80320002A1F
:10C7C000DDD0D8F85010022904DDD3F807101B483B
:10C7D000FBF7C8FFD4F83F110E23C1F1010103FBA1
:10C7E000014101F223115046FFF798FB0028C6DAF9
:10C7F000D8F85030002BC2DD124804E0D8F8503091
:10C80000002BBCDD1048FBF7ADFFB8E7BCAA012048
:10C8100082D30108001000109C4A010834AC0120AA
:10C82000B6D30108B0D301086BD3010876D3010851
:10C83000BDD30108E7D3010800D401080BD40108D7
:10C8400043D4010877D401088BD4010808B502202D
:10C8500002F0C6FA044803680BB1FFF791FEBDE889
:10C860000840FFF7C3BC00BFD4AD01202DE9F04F55
:10C87000514D037A502202FB035387B0D3F810A026
:10C8800004464FF064080026DAF80C31002B73D010
:10C890001B68002B70D06368277A0193502303FB39
:10C8A0000753D4F800B093F820901E6919F1FF33B4
:10C8B00018BF012303939BF8003006F21512552B85
:10C8C000029211D0D6F80C01FFF758FC5A46039B90
:10C8D000BDF80410029806F093FD8346FFF778FC3C
:10C8E000B9F1010F15D11EE0B9F1020FEAD11EB165
:10C8F000D6F80C31002BE5D1304B3149314840F2AC
:10C900005D32FBF72FFF01230593059B002BFCD124
:10C91000D8E7BBF1000F06DB502303FB0755EB6C98
:10C920000133EB642CE0BBF1FF3F05D1D6F80C21BD
:10C93000936A0133936207E01BF1020F04D1D6F82A
:10C940000C21D36A0133D362BBF1000F4FEADB76CF
:10C9500012DAB8F101080AD1DAF80C01FFF710FE7B
:10C96000237A502202FB03535A6C01325A64FFF7B8
:10C970003DFC0120FDF78CFF16B1B8F1000F83D10B
:10C9800001221146207AFFF751F9002806DBA4F1B5
:10C99000140001F0A7F807B0BDE8F08F0A4B0B496F
:10C9A00008484FF4BF72FBF7DDFE01230493049B9C
:10C9B000002BFCD1EBE700BFBCAA01209ED40108EC
:10C9C0008E500108F4480108BCD4010898500108B1
:10C9D000044B5B6823B100221989586804F0DABA65
:10C9E000704700BF54AD0120034B586818B1818ACD
:10C9F000006901F0E7BB704754AD0120034B5B6851
:10CA0000014613B1186801F00FBA704754AD012008
:10CA100070470000034B586810B1006801F048BA35
:10CA2000704700BF54AD0120044B5B6823B1012265
:10CA30001989586804F0AEBA704700BF54AD0120A0
:10CA40002DE9F04389B04FF4FA73012200250293D7
:10CA5000019200924FF0FF3103952846A14C00F05F
:10CA6000C3F9A148FFF78AFBFFF7DEFF236D012B17
:10CA700003DD29469D48FBF775FE276B636B666BEC
:10CA8000A56B9B48AD0305F4803545EA0325EC3ED4
:10CA9000A36B022E8CBF00260126DB0746BF47F0A2
:10CAA000020745F0020545F001052A463946FFF721
:10CAB00003FA804607F026F906F0A2FF48F22003A9
:10CAC000984252D108A9002341F8103D47F6FC30A6
:10CAD00006F0E0FF012007F0F1F84FF4967007F040
:10CAE000D5F807F03BF9049B9845236D5FD0002BE8
:10CAF00002DD8048FBF736FE2A4639467C48FFF7C0
:10CB0000DBF907F0FFF806F07BFF48F220039842BC
:10CB100052D106F085FF022805D10A20FDF7B8FEA4
:10CB200006F0DBFFF7E748F20303984244D14FF4E5
:10CB30008060FBF796FC4FF00008814601E008F5A5
:10CB40008068019500974FF48063424668494846E3
:10CB5000FFF778F9B8F5F84F11D14846FBF792FC8A
:10CB600005A947F6FC3006F095FF012007F0A6F86E
:10CB70004FF4967007F08AF807F0F0F81CE04FF4D5
:10CB8000C04007F066F849464FF4806006F0D2FFD7
:10CB9000A8F5004189B24FF4C04006F051FF48F2B9
:10CBA0000B039842CBD04846FBF76CFC04E0012B0A
:10CBB00002DD5148FBF7D6FDE36C980703D4494BDF
:10CBC000DB6C990702D507F09DF863E006F07EFC68
:10CBD00000285FD106F081FF020403D40120FDF795
:10CBE00057FEF7E705A806F095FB059B013B0333CD
:10CBF00050D8FF2006F0ACFBA22006F0B9FB06F0EF
:10CC00006CFF030403D40120FDF742FEF7E705A8FB
:10CC100006F080FB05994B1E03333BD8324B069A36
:10CC2000079DD9611A625D62206D01281F4603DDF0
:10CC30002B463248FBF796FD314B19699D762D0A3C
:10CC40005D76C1F80C71A26BA36B02F00102C3F315
:10CC5000800303EB42032B4A02EB430300209B5D5E
:10CC6000C1F83F31FCF726FC236D012B05DD06F0F2
:10CC700034FF01462448FBF775FD4FF47A736422B4
:10CC8000002001920390029300930222032100F0FE
:10CC9000ABF81AE0236D002B03DD00211B48FBF7E6
:10CCA00061FD00210846FEF7FBFF154B1A690023C2
:10CCB00082F80C3182F80D3182F80E3182F80F3192
:10CCC000094A137053709370D370FFF781FA0022F2
:10CCD0004FF0FF3311461046FCF7DAFD09B0BDE80E
:10CCE000F08300BF00100010D4AD012009D5010869
:10CCF000A350010827D5010850D5010864D50108C3
:10CD0000BCAA01207848010889D50108AAD50108E4
:10CD10002DE9F8431E4CDFF880908046012500275E
:10CD2000266E84F86B702EB394F86830012B21D1F5
:10CD300094F87030F3B1002084F8713084F870708A
:10CD4000FCF7B8FBD9F85030012B08DDD6F81D31BF
:10CD5000D6F81921D6F815110E48FBF703FD00216E
:10CD60002846FEF79DFFD6F815210321D2B22846AA
:10CD7000FFF71AFB0135EDB2032D04F15004CFD1BA
:10CD8000FFF75EFEA8F11400BDE8F84300F0AABE6C
:10CD9000BCAA0120C8D501080010001008B5642005
:10CDA000FDF776FDBDE80840FFF74ABE074B084A8D
:10CDB0001B68B3FBF2F382B058430190019B5A1EEB
:10CDC0000192002BFAD102B0704700BFE4AB012002
:10CDD000C0CF6A00034B834202D1012002F000B8A9
:10CDE000704700BF38A901202DE9F843051E894688
:10CDF000164698469DF82C7028DC531C03D1174B1F
:10CE000043F8252026E0202000F012FC0446E8B17B
:10CE1000089B4362099B83620A9B4561C362C0F819
